{
	"solidity_programs/18.sol": {
		"demo": {
			"abi": [
				{
					"inputs": [],
					"name": "getter",
					"outputs": [
						{
							"components": [
								{
									"internalType": "string",
									"name": "name",
									"type": "string"
								},
								{
									"internalType": "uint256",
									"name": "roll",
									"type": "uint256"
								},
								{
									"internalType": "bool",
									"name": "pass",
									"type": "bool"
								}
							],
							"internalType": "struct demo.student",
							"name": "",
							"type": "tuple"
						}
					],
					"stateMutability": "view",
					"type": "function"
				},
				{
					"inputs": [
						{
							"internalType": "string",
							"name": "_name",
							"type": "string"
						},
						{
							"internalType": "uint256",
							"name": "_roll",
							"type": "uint256"
						},
						{
							"internalType": "bool",
							"name": "_pass",
							"type": "bool"
						}
					],
					"name": "insertstring",
					"outputs": [],
					"stateMutability": "nonpayable",
					"type": "function"
				},
				{
					"inputs": [],
					"name": "s1",
					"outputs": [
						{
							"internalType": "string",
							"name": "name",
							"type": "string"
						},
						{
							"internalType": "uint256",
							"name": "roll",
							"type": "uint256"
						},
						{
							"internalType": "bool",
							"name": "pass",
							"type": "bool"
						}
					],
					"stateMutability": "view",
					"type": "function"
				}
			],
			"devdoc": {
				"kind": "dev",
				"methods": {},
				"version": 1
			},
			"evm": {
				"assembly": "    /* \"solidity_programs/18.sol\":68:671  contract demo {... */\n  mstore(0x40, 0x80)\n  callvalue\n  dup1\n  iszero\n  tag_1\n  jumpi\n  0x00\n  dup1\n  revert\ntag_1:\n  pop\n  dataSize(sub_0)\n  dup1\n  dataOffset(sub_0)\n  0x00\n  codecopy\n  0x00\n  return\nstop\n\nsub_0: assembly {\n        /* \"solidity_programs/18.sol\":68:671  contract demo {... */\n      mstore(0x40, 0x80)\n      callvalue\n      dup1\n      iszero\n      tag_1\n      jumpi\n      0x00\n      dup1\n      revert\n    tag_1:\n      pop\n      jumpi(tag_2, lt(calldatasize, 0x04))\n      shr(0xe0, calldataload(0x00))\n      dup1\n      0x6cc014de\n      eq\n      tag_3\n      jumpi\n      dup1\n      0x993a04b7\n      eq\n      tag_4\n      jumpi\n      dup1\n      0x9a681971\n      eq\n      tag_5\n      jumpi\n    tag_2:\n      0x00\n      dup1\n      revert\n        /* \"solidity_programs/18.sol\":289:306  student public s1 */\n    tag_3:\n      tag_6\n      tag_7\n      jump\t// in\n    tag_6:\n      mload(0x40)\n      tag_8\n      swap4\n      swap3\n      swap2\n      swap1\n      tag_9\n      jump\t// in\n    tag_8:\n      mload(0x40)\n      dup1\n      swap2\n      sub\n      swap1\n      return\n        /* \"solidity_programs/18.sol\":585:668  function getter() public view returns (student memory) {... */\n    tag_4:\n      tag_10\n      tag_11\n      jump\t// in\n    tag_10:\n      mload(0x40)\n      tag_12\n      swap2\n      swap1\n      tag_13\n      jump\t// in\n    tag_12:\n      mload(0x40)\n      dup1\n      swap2\n      sub\n      swap1\n      return\n        /* \"solidity_programs/18.sol\":371:531  function insertstring(string memory _name, uint _roll, bool _pass) public {... */\n    tag_5:\n      tag_14\n      0x04\n      dup1\n      calldatasize\n      sub\n      dup2\n      add\n      swap1\n      tag_15\n      swap2\n      swap1\n      tag_16\n      jump\t// in\n    tag_15:\n      tag_17\n      jump\t// in\n    tag_14:\n      stop\n        /* \"solidity_programs/18.sol\":289:306  student public s1 */\n    tag_7:\n      0x00\n      dup1\n      0x00\n      add\n      dup1\n      sload\n      tag_18\n      swap1\n      tag_19\n      jump\t// in\n    tag_18:\n      dup1\n      0x1f\n      add\n      0x20\n      dup1\n      swap2\n      div\n      mul\n      0x20\n      add\n      mload(0x40)\n      swap1\n      dup2\n      add\n      0x40\n      mstore\n      dup1\n      swap3\n      swap2\n      swap1\n      dup2\n      dup2\n      mstore\n      0x20\n      add\n      dup3\n      dup1\n      sload\n      tag_20\n      swap1\n      tag_19\n      jump\t// in\n    tag_20:\n      dup1\n      iszero\n      tag_21\n      jumpi\n      dup1\n      0x1f\n      lt\n      tag_22\n      jumpi\n      0x0100\n      dup1\n      dup4\n      sload\n      div\n      mul\n      dup4\n      mstore\n      swap2\n      0x20\n      add\n      swap2\n      jump(tag_21)\n    tag_22:\n      dup3\n      add\n      swap2\n      swap1\n      0x00\n      mstore\n      keccak256(0x00, 0x20)\n      swap1\n    tag_23:\n      dup2\n      sload\n      dup2\n      mstore\n      swap1\n      0x01\n      add\n      swap1\n      0x20\n      add\n      dup1\n      dup4\n      gt\n      tag_23\n      jumpi\n      dup3\n      swap1\n      sub\n      0x1f\n      and\n      dup3\n      add\n      swap2\n    tag_21:\n      pop\n      pop\n      pop\n      pop\n      pop\n      swap1\n      dup1\n      0x01\n      add\n      sload\n      swap1\n      dup1\n      0x02\n      add\n      0x00\n      swap1\n      sload\n      swap1\n      0x0100\n      exp\n      swap1\n      div\n      0xff\n      and\n      swap1\n      pop\n      dup4\n      jump\t// out\n        /* \"solidity_programs/18.sol\":585:668  function getter() public view returns (student memory) {... */\n    tag_11:\n        /* \"solidity_programs/18.sol\":624:638  student memory */\n      tag_24\n      tag_25\n      jump\t// in\n    tag_24:\n        /* \"solidity_programs/18.sol\":658:660  s1 */\n      0x00\n        /* \"solidity_programs/18.sol\":651:660  return s1 */\n      mload(0x40)\n      dup1\n      0x60\n      add\n      0x40\n      mstore\n      swap1\n      dup2\n      0x00\n      dup3\n      add\n      dup1\n      sload\n      tag_27\n      swap1\n      tag_19\n      jump\t// in\n    tag_27:\n      dup1\n      0x1f\n      add\n      0x20\n      dup1\n      swap2\n      div\n      mul\n      0x20\n      add\n      mload(0x40)\n      swap1\n      dup2\n      add\n      0x40\n      mstore\n      dup1\n      swap3\n      swap2\n      swap1\n      dup2\n      dup2\n      mstore\n      0x20\n      add\n      dup3\n      dup1\n      sload\n      tag_28\n      swap1\n      tag_19\n      jump\t// in\n    tag_28:\n      dup1\n      iszero\n      tag_29\n      jumpi\n      dup1\n      0x1f\n      lt\n      tag_30\n      jumpi\n      0x0100\n      dup1\n      dup4\n      sload\n      div\n      mul\n      dup4\n      mstore\n      swap2\n      0x20\n      add\n      swap2\n      jump(tag_29)\n    tag_30:\n      dup3\n      add\n      swap2\n      swap1\n      0x00\n      mstore\n      keccak256(0x00, 0x20)\n      swap1\n    tag_31:\n      dup2\n      sload\n      dup2\n      mstore\n      swap1\n      0x01\n      add\n      swap1\n      0x20\n      add\n      dup1\n      dup4\n      gt\n      tag_31\n      jumpi\n      dup3\n      swap1\n      sub\n      0x1f\n      and\n      dup3\n      add\n      swap2\n    tag_29:\n      pop\n      pop\n      pop\n      pop\n      pop\n      dup2\n      mstore\n      0x20\n      add\n      0x01\n      dup3\n      add\n      sload\n      dup2\n      mstore\n      0x20\n      add\n      0x02\n      dup3\n      add\n      0x00\n      swap1\n      sload\n      swap1\n      0x0100\n      exp\n      swap1\n      div\n      0xff\n      and\n      iszero\n      iszero\n      iszero\n      iszero\n      dup2\n      mstore\n      pop\n      pop\n      swap1\n      pop\n        /* \"solidity_programs/18.sol\":585:668  function getter() public view returns (student memory) {... */\n      swap1\n      jump\t// out\n        /* \"solidity_programs/18.sol\":371:531  function insertstring(string memory _name, uint _roll, bool _pass) public {... */\n    tag_17:\n        /* \"solidity_programs/18.sol\":466:471  _name */\n      dup3\n        /* \"solidity_programs/18.sol\":456:458  s1 */\n      0x00\n        /* \"solidity_programs/18.sol\":456:463  s1.name */\n      dup1\n      add\n        /* \"solidity_programs/18.sol\":456:471  s1.name = _name */\n      swap1\n      dup2\n      tag_33\n      swap2\n      swap1\n      tag_34\n      jump\t// in\n    tag_33:\n      pop\n        /* \"solidity_programs/18.sol\":492:497  _roll */\n      dup2\n        /* \"solidity_programs/18.sol\":482:484  s1 */\n      0x00\n        /* \"solidity_programs/18.sol\":482:489  s1.roll */\n      0x01\n      add\n        /* \"solidity_programs/18.sol\":482:497  s1.roll = _roll */\n      dup2\n      swap1\n      sstore\n      pop\n        /* \"solidity_programs/18.sol\":518:523  _pass */\n      dup1\n        /* \"solidity_programs/18.sol\":508:510  s1 */\n      0x00\n        /* \"solidity_programs/18.sol\":508:515  s1.pass */\n      0x02\n      add\n      0x00\n        /* \"solidity_programs/18.sol\":508:523  s1.pass = _pass */\n      0x0100\n      exp\n      dup2\n      sload\n      dup2\n      0xff\n      mul\n      not\n      and\n      swap1\n      dup4\n      iszero\n      iszero\n      mul\n      or\n      swap1\n      sstore\n      pop\n        /* \"solidity_programs/18.sol\":371:531  function insertstring(string memory _name, uint _roll, bool _pass) public {... */\n      pop\n      pop\n      pop\n      jump\t// out\n    tag_25:\n      mload(0x40)\n      dup1\n      0x60\n      add\n      0x40\n      mstore\n      dup1\n      0x60\n      dup2\n      mstore\n      0x20\n      add\n      0x00\n      dup2\n      mstore\n      0x20\n      add\n      iszero(iszero(0x00))\n      dup2\n      mstore\n      pop\n      swap1\n      jump\t// out\n        /* \"#utility.yul\":7:106   */\n    tag_35:\n        /* \"#utility.yul\":59:65   */\n      0x00\n        /* \"#utility.yul\":93:98   */\n      dup2\n        /* \"#utility.yul\":87:99   */\n      mload\n        /* \"#utility.yul\":77:99   */\n      swap1\n      pop\n        /* \"#utility.yul\":7:106   */\n      swap2\n      swap1\n      pop\n      jump\t// out\n        /* \"#utility.yul\":112:281   */\n    tag_36:\n        /* \"#utility.yul\":196:207   */\n      0x00\n        /* \"#utility.yul\":230:236   */\n      dup3\n        /* \"#utility.yul\":225:228   */\n      dup3\n        /* \"#utility.yul\":218:237   */\n      mstore\n        /* \"#utility.yul\":270:274   */\n      0x20\n        /* \"#utility.yul\":265:268   */\n      dup3\n        /* \"#utility.yul\":261:275   */\n      add\n        /* \"#utility.yul\":246:275   */\n      swap1\n      pop\n        /* \"#utility.yul\":112:281   */\n      swap3\n      swap2\n      pop\n      pop\n      jump\t// out\n        /* \"#utility.yul\":287:426   */\n    tag_37:\n        /* \"#utility.yul\":376:382   */\n      dup3\n        /* \"#utility.yul\":371:374   */\n      dup2\n        /* \"#utility.yul\":366:369   */\n      dup4\n        /* \"#utility.yul\":360:383   */\n      mcopy\n        /* \"#utility.yul\":417:418   */\n      0x00\n        /* \"#utility.yul\":408:414   */\n      dup4\n        /* \"#utility.yul\":403:406   */\n      dup4\n        /* \"#utility.yul\":399:415   */\n      add\n        /* \"#utility.yul\":392:419   */\n      mstore\n        /* \"#utility.yul\":287:426   */\n      pop\n      pop\n      pop\n      jump\t// out\n        /* \"#utility.yul\":432:534   */\n    tag_38:\n        /* \"#utility.yul\":473:479   */\n      0x00\n        /* \"#utility.yul\":524:526   */\n      0x1f\n        /* \"#utility.yul\":520:527   */\n      not\n        /* \"#utility.yul\":515:517   */\n      0x1f\n        /* \"#utility.yul\":508:513   */\n      dup4\n        /* \"#utility.yul\":504:518   */\n      add\n        /* \"#utility.yul\":500:528   */\n      and\n        /* \"#utility.yul\":490:528   */\n      swap1\n      pop\n        /* \"#utility.yul\":432:534   */\n      swap2\n      swap1\n      pop\n      jump\t// out\n        /* \"#utility.yul\":540:917   */\n    tag_39:\n        /* \"#utility.yul\":628:631   */\n      0x00\n        /* \"#utility.yul\":656:695   */\n      tag_87\n        /* \"#utility.yul\":689:694   */\n      dup3\n        /* \"#utility.yul\":656:695   */\n      tag_35\n      jump\t// in\n    tag_87:\n        /* \"#utility.yul\":711:782   */\n      tag_88\n        /* \"#utility.yul\":775:781   */\n      dup2\n        /* \"#utility.yul\":770:773   */\n      dup6\n        /* \"#utility.yul\":711:782   */\n      tag_36\n      jump\t// in\n    tag_88:\n        /* \"#utility.yul\":704:782   */\n      swap4\n      pop\n        /* \"#utility.yul\":791:856   */\n      tag_89\n        /* \"#utility.yul\":849:855   */\n      dup2\n        /* \"#utility.yul\":844:847   */\n      dup6\n        /* \"#utility.yul\":837:841   */\n      0x20\n        /* \"#utility.yul\":830:835   */\n      dup7\n        /* \"#utility.yul\":826:842   */\n      add\n        /* \"#utility.yul\":791:856   */\n      tag_37\n      jump\t// in\n    tag_89:\n        /* \"#utility.yul\":881:910   */\n      tag_90\n        /* \"#utility.yul\":903:909   */\n      dup2\n        /* \"#utility.yul\":881:910   */\n      tag_38\n      jump\t// in\n    tag_90:\n        /* \"#utility.yul\":876:879   */\n      dup5\n        /* \"#utility.yul\":872:911   */\n      add\n        /* \"#utility.yul\":865:911   */\n      swap2\n      pop\n        /* \"#utility.yul\":632:917   */\n      pop\n        /* \"#utility.yul\":540:917   */\n      swap3\n      swap2\n      pop\n      pop\n      jump\t// out\n        /* \"#utility.yul\":923:1000   */\n    tag_40:\n        /* \"#utility.yul\":960:967   */\n      0x00\n        /* \"#utility.yul\":989:994   */\n      dup2\n        /* \"#utility.yul\":978:994   */\n      swap1\n      pop\n        /* \"#utility.yul\":923:1000   */\n      swap2\n      swap1\n      pop\n      jump\t// out\n        /* \"#utility.yul\":1006:1124   */\n    tag_41:\n        /* \"#utility.yul\":1093:1117   */\n      tag_93\n        /* \"#utility.yul\":1111:1116   */\n      dup2\n        /* \"#utility.yul\":1093:1117   */\n      tag_40\n      jump\t// in\n    tag_93:\n        /* \"#utility.yul\":1088:1091   */\n      dup3\n        /* \"#utility.yul\":1081:1118   */\n      mstore\n        /* \"#utility.yul\":1006:1124   */\n      pop\n      pop\n      jump\t// out\n        /* \"#utility.yul\":1130:1220   */\n    tag_42:\n        /* \"#utility.yul\":1164:1171   */\n      0x00\n        /* \"#utility.yul\":1207:1212   */\n      dup2\n        /* \"#utility.yul\":1200:1213   */\n      iszero\n        /* \"#utility.yul\":1193:1214   */\n      iszero\n        /* \"#utility.yul\":1182:1214   */\n      swap1\n      pop\n        /* \"#utility.yul\":1130:1220   */\n      swap2\n      swap1\n      pop\n      jump\t// out\n        /* \"#utility.yul\":1226:1335   */\n    tag_43:\n        /* \"#utility.yul\":1307:1328   */\n      tag_96\n        /* \"#utility.yul\":1322:1327   */\n      dup2\n        /* \"#utility.yul\":1307:1328   */\n      tag_42\n      jump\t// in\n    tag_96:\n        /* \"#utility.yul\":1302:1305   */\n      dup3\n        /* \"#utility.yul\":1295:1329   */\n      mstore\n        /* \"#utility.yul\":1226:1335   */\n      pop\n      pop\n      jump\t// out\n        /* \"#utility.yul\":1341:1862   */\n    tag_9:\n        /* \"#utility.yul\":1504:1508   */\n      0x00\n        /* \"#utility.yul\":1542:1544   */\n      0x60\n        /* \"#utility.yul\":1531:1540   */\n      dup3\n        /* \"#utility.yul\":1527:1545   */\n      add\n        /* \"#utility.yul\":1519:1545   */\n      swap1\n      pop\n        /* \"#utility.yul\":1591:1600   */\n      dup2\n        /* \"#utility.yul\":1585:1589   */\n      dup2\n        /* \"#utility.yul\":1581:1601   */\n      sub\n        /* \"#utility.yul\":1577:1578   */\n      0x00\n        /* \"#utility.yul\":1566:1575   */\n      dup4\n        /* \"#utility.yul\":1562:1579   */\n      add\n        /* \"#utility.yul\":1555:1602   */\n      mstore\n        /* \"#utility.yul\":1619:1697   */\n      tag_98\n        /* \"#utility.yul\":1692:1696   */\n      dup2\n        /* \"#utility.yul\":1683:1689   */\n      dup7\n        /* \"#utility.yul\":1619:1697   */\n      tag_39\n      jump\t// in\n    tag_98:\n        /* \"#utility.yul\":1611:1697   */\n      swap1\n      pop\n        /* \"#utility.yul\":1707:1779   */\n      tag_99\n        /* \"#utility.yul\":1775:1777   */\n      0x20\n        /* \"#utility.yul\":1764:1773   */\n      dup4\n        /* \"#utility.yul\":1760:1778   */\n      add\n        /* \"#utility.yul\":1751:1757   */\n      dup6\n        /* \"#utility.yul\":1707:1779   */\n      tag_41\n      jump\t// in\n    tag_99:\n        /* \"#utility.yul\":1789:1855   */\n      tag_100\n        /* \"#utility.yul\":1851:1853   */\n      0x40\n        /* \"#utility.yul\":1840:1849   */\n      dup4\n        /* \"#utility.yul\":1836:1854   */\n      add\n        /* \"#utility.yul\":1827:1833   */\n      dup5\n        /* \"#utility.yul\":1789:1855   */\n      tag_43\n      jump\t// in\n    tag_100:\n        /* \"#utility.yul\":1341:1862   */\n      swap5\n      swap4\n      pop\n      pop\n      pop\n      pop\n      jump\t// out\n        /* \"#utility.yul\":1868:2027   */\n    tag_44:\n        /* \"#utility.yul\":1942:1953   */\n      0x00\n        /* \"#utility.yul\":1976:1982   */\n      dup3\n        /* \"#utility.yul\":1971:1974   */\n      dup3\n        /* \"#utility.yul\":1964:1983   */\n      mstore\n        /* \"#utility.yul\":2016:2020   */\n      0x20\n        /* \"#utility.yul\":2011:2014   */\n      dup3\n        /* \"#utility.yul\":2007:2021   */\n      add\n        /* \"#utility.yul\":1992:2021   */\n      swap1\n      pop\n        /* \"#utility.yul\":1868:2027   */\n      swap3\n      swap2\n      pop\n      pop\n      jump\t// out\n        /* \"#utility.yul\":2033:2390   */\n    tag_45:\n        /* \"#utility.yul\":2111:2114   */\n      0x00\n        /* \"#utility.yul\":2139:2178   */\n      tag_103\n        /* \"#utility.yul\":2172:2177   */\n      dup3\n        /* \"#utility.yul\":2139:2178   */\n      tag_35\n      jump\t// in\n    tag_103:\n        /* \"#utility.yul\":2194:2255   */\n      tag_104\n        /* \"#utility.yul\":2248:2254   */\n      dup2\n        /* \"#utility.yul\":2243:2246   */\n      dup6\n        /* \"#utility.yul\":2194:2255   */\n      tag_44\n      jump\t// in\n    tag_104:\n        /* \"#utility.yul\":2187:2255   */\n      swap4\n      pop\n        /* \"#utility.yul\":2264:2329   */\n      tag_105\n        /* \"#utility.yul\":2322:2328   */\n      dup2\n        /* \"#utility.yul\":2317:2320   */\n      dup6\n        /* \"#utility.yul\":2310:2314   */\n      0x20\n        /* \"#utility.yul\":2303:2308   */\n      dup7\n        /* \"#utility.yul\":2299:2315   */\n      add\n        /* \"#utility.yul\":2264:2329   */\n      tag_37\n      jump\t// in\n    tag_105:\n        /* \"#utility.yul\":2354:2383   */\n      tag_106\n        /* \"#utility.yul\":2376:2382   */\n      dup2\n        /* \"#utility.yul\":2354:2383   */\n      tag_38\n      jump\t// in\n    tag_106:\n        /* \"#utility.yul\":2349:2352   */\n      dup5\n        /* \"#utility.yul\":2345:2384   */\n      add\n        /* \"#utility.yul\":2338:2384   */\n      swap2\n      pop\n        /* \"#utility.yul\":2115:2390   */\n      pop\n        /* \"#utility.yul\":2033:2390   */\n      swap3\n      swap2\n      pop\n      pop\n      jump\t// out\n        /* \"#utility.yul\":2396:2504   */\n    tag_46:\n        /* \"#utility.yul\":2473:2497   */\n      tag_108\n        /* \"#utility.yul\":2491:2496   */\n      dup2\n        /* \"#utility.yul\":2473:2497   */\n      tag_40\n      jump\t// in\n    tag_108:\n        /* \"#utility.yul\":2468:2471   */\n      dup3\n        /* \"#utility.yul\":2461:2498   */\n      mstore\n        /* \"#utility.yul\":2396:2504   */\n      pop\n      pop\n      jump\t// out\n        /* \"#utility.yul\":2510:2609   */\n    tag_47:\n        /* \"#utility.yul\":2581:2602   */\n      tag_110\n        /* \"#utility.yul\":2596:2601   */\n      dup2\n        /* \"#utility.yul\":2581:2602   */\n      tag_42\n      jump\t// in\n    tag_110:\n        /* \"#utility.yul\":2576:2579   */\n      dup3\n        /* \"#utility.yul\":2569:2603   */\n      mstore\n        /* \"#utility.yul\":2510:2609   */\n      pop\n      pop\n      jump\t// out\n        /* \"#utility.yul\":2665:3433   */\n    tag_48:\n        /* \"#utility.yul\":2778:2781   */\n      0x00\n        /* \"#utility.yul\":2814:2818   */\n      0x60\n        /* \"#utility.yul\":2809:2812   */\n      dup4\n        /* \"#utility.yul\":2805:2819   */\n      add\n        /* \"#utility.yul\":2901:2905   */\n      0x00\n        /* \"#utility.yul\":2894:2899   */\n      dup4\n        /* \"#utility.yul\":2890:2906   */\n      add\n        /* \"#utility.yul\":2884:2907   */\n      mload\n        /* \"#utility.yul\":2954:2957   */\n      dup5\n        /* \"#utility.yul\":2948:2952   */\n      dup3\n        /* \"#utility.yul\":2944:2958   */\n      sub\n        /* \"#utility.yul\":2937:2941   */\n      0x00\n        /* \"#utility.yul\":2932:2935   */\n      dup7\n        /* \"#utility.yul\":2928:2942   */\n      add\n        /* \"#utility.yul\":2921:2959   */\n      mstore\n        /* \"#utility.yul\":2980:3053   */\n      tag_112\n        /* \"#utility.yul\":3048:3052   */\n      dup3\n        /* \"#utility.yul\":3034:3046   */\n      dup3\n        /* \"#utility.yul\":2980:3053   */\n      tag_45\n      jump\t// in\n    tag_112:\n        /* \"#utility.yul\":2972:3053   */\n      swap2\n      pop\n        /* \"#utility.yul\":2829:3064   */\n      pop\n        /* \"#utility.yul\":3146:3150   */\n      0x20\n        /* \"#utility.yul\":3139:3144   */\n      dup4\n        /* \"#utility.yul\":3135:3151   */\n      add\n        /* \"#utility.yul\":3129:3152   */\n      mload\n        /* \"#utility.yul\":3165:3228   */\n      tag_113\n        /* \"#utility.yul\":3222:3226   */\n      0x20\n        /* \"#utility.yul\":3217:3220   */\n      dup7\n        /* \"#utility.yul\":3213:3227   */\n      add\n        /* \"#utility.yul\":3199:3211   */\n      dup3\n        /* \"#utility.yul\":3165:3228   */\n      tag_46\n      jump\t// in\n    tag_113:\n        /* \"#utility.yul\":3074:3238   */\n      pop\n        /* \"#utility.yul\":3320:3324   */\n      0x40\n        /* \"#utility.yul\":3313:3318   */\n      dup4\n        /* \"#utility.yul\":3309:3325   */\n      add\n        /* \"#utility.yul\":3303:3326   */\n      mload\n        /* \"#utility.yul\":3339:3396   */\n      tag_114\n        /* \"#utility.yul\":3390:3394   */\n      0x40\n        /* \"#utility.yul\":3385:3388   */\n      dup7\n        /* \"#utility.yul\":3381:3395   */\n      add\n        /* \"#utility.yul\":3367:3379   */\n      dup3\n        /* \"#utility.yul\":3339:3396   */\n      tag_47\n      jump\t// in\n    tag_114:\n        /* \"#utility.yul\":3248:3406   */\n      pop\n        /* \"#utility.yul\":3423:3427   */\n      dup1\n        /* \"#utility.yul\":3416:3427   */\n      swap2\n      pop\n        /* \"#utility.yul\":2783:3433   */\n      pop\n        /* \"#utility.yul\":2665:3433   */\n      swap3\n      swap2\n      pop\n      pop\n      jump\t// out\n        /* \"#utility.yul\":3439:3800   */\n    tag_13:\n        /* \"#utility.yul\":3576:3580   */\n      0x00\n        /* \"#utility.yul\":3614:3616   */\n      0x20\n        /* \"#utility.yul\":3603:3612   */\n      dup3\n        /* \"#utility.yul\":3599:3617   */\n      add\n        /* \"#utility.yul\":3591:3617   */\n      swap1\n      pop\n        /* \"#utility.yul\":3663:3672   */\n      dup2\n        /* \"#utility.yul\":3657:3661   */\n      dup2\n        /* \"#utility.yul\":3653:3673   */\n      sub\n        /* \"#utility.yul\":3649:3650   */\n      0x00\n        /* \"#utility.yul\":3638:3647   */\n      dup4\n        /* \"#utility.yul\":3634:3651   */\n      add\n        /* \"#utility.yul\":3627:3674   */\n      mstore\n        /* \"#utility.yul\":3691:3793   */\n      tag_116\n        /* \"#utility.yul\":3788:3792   */\n      dup2\n        /* \"#utility.yul\":3779:3785   */\n      dup5\n        /* \"#utility.yul\":3691:3793   */\n      tag_48\n      jump\t// in\n    tag_116:\n        /* \"#utility.yul\":3683:3793   */\n      swap1\n      pop\n        /* \"#utility.yul\":3439:3800   */\n      swap3\n      swap2\n      pop\n      pop\n      jump\t// out\n        /* \"#utility.yul\":3806:3881   */\n    tag_49:\n        /* \"#utility.yul\":3839:3845   */\n      0x00\n        /* \"#utility.yul\":3872:3874   */\n      0x40\n        /* \"#utility.yul\":3866:3875   */\n      mload\n        /* \"#utility.yul\":3856:3875   */\n      swap1\n      pop\n        /* \"#utility.yul\":3806:3881   */\n      swap1\n      jump\t// out\n        /* \"#utility.yul\":3887:4004   */\n    tag_50:\n        /* \"#utility.yul\":3996:3997   */\n      0x00\n        /* \"#utility.yul\":3993:3994   */\n      dup1\n        /* \"#utility.yul\":3986:3998   */\n      revert\n        /* \"#utility.yul\":4010:4127   */\n    tag_51:\n        /* \"#utility.yul\":4119:4120   */\n      0x00\n        /* \"#utility.yul\":4116:4117   */\n      dup1\n        /* \"#utility.yul\":4109:4121   */\n      revert\n        /* \"#utility.yul\":4133:4250   */\n    tag_52:\n        /* \"#utility.yul\":4242:4243   */\n      0x00\n        /* \"#utility.yul\":4239:4240   */\n      dup1\n        /* \"#utility.yul\":4232:4244   */\n      revert\n        /* \"#utility.yul\":4256:4373   */\n    tag_53:\n        /* \"#utility.yul\":4365:4366   */\n      0x00\n        /* \"#utility.yul\":4362:4363   */\n      dup1\n        /* \"#utility.yul\":4355:4367   */\n      revert\n        /* \"#utility.yul\":4379:4559   */\n    tag_54:\n        /* \"#utility.yul\":4427:4504   */\n      0x4e487b7100000000000000000000000000000000000000000000000000000000\n        /* \"#utility.yul\":4424:4425   */\n      0x00\n        /* \"#utility.yul\":4417:4505   */\n      mstore\n        /* \"#utility.yul\":4524:4528   */\n      0x41\n        /* \"#utility.yul\":4521:4522   */\n      0x04\n        /* \"#utility.yul\":4514:4529   */\n      mstore\n        /* \"#utility.yul\":4548:4552   */\n      0x24\n        /* \"#utility.yul\":4545:4546   */\n      0x00\n        /* \"#utility.yul\":4538:4553   */\n      revert\n        /* \"#utility.yul\":4565:4846   */\n    tag_55:\n        /* \"#utility.yul\":4648:4675   */\n      tag_124\n        /* \"#utility.yul\":4670:4674   */\n      dup3\n        /* \"#utility.yul\":4648:4675   */\n      tag_38\n      jump\t// in\n    tag_124:\n        /* \"#utility.yul\":4640:4646   */\n      dup2\n        /* \"#utility.yul\":4636:4676   */\n      add\n        /* \"#utility.yul\":4778:4784   */\n      dup2\n        /* \"#utility.yul\":4766:4776   */\n      dup2\n        /* \"#utility.yul\":4763:4785   */\n      lt\n        /* \"#utility.yul\":4742:4760   */\n      0xffffffffffffffff\n        /* \"#utility.yul\":4730:4740   */\n      dup3\n        /* \"#utility.yul\":4727:4761   */\n      gt\n        /* \"#utility.yul\":4724:4786   */\n      or\n        /* \"#utility.yul\":4721:4809   */\n      iszero\n      tag_125\n      jumpi\n        /* \"#utility.yul\":4789:4807   */\n      tag_126\n      tag_54\n      jump\t// in\n    tag_126:\n        /* \"#utility.yul\":4721:4809   */\n    tag_125:\n        /* \"#utility.yul\":4829:4839   */\n      dup1\n        /* \"#utility.yul\":4825:4827   */\n      0x40\n        /* \"#utility.yul\":4818:4840   */\n      mstore\n        /* \"#utility.yul\":4608:4846   */\n      pop\n        /* \"#utility.yul\":4565:4846   */\n      pop\n      pop\n      jump\t// out\n        /* \"#utility.yul\":4852:4981   */\n    tag_56:\n        /* \"#utility.yul\":4886:4892   */\n      0x00\n        /* \"#utility.yul\":4913:4933   */\n      tag_128\n      tag_49\n      jump\t// in\n    tag_128:\n        /* \"#utility.yul\":4903:4933   */\n      swap1\n      pop\n        /* \"#utility.yul\":4942:4975   */\n      tag_129\n        /* \"#utility.yul\":4970:4974   */\n      dup3\n        /* \"#utility.yul\":4962:4968   */\n      dup3\n        /* \"#utility.yul\":4942:4975   */\n      tag_55\n      jump\t// in\n    tag_129:\n        /* \"#utility.yul\":4852:4981   */\n      swap2\n      swap1\n      pop\n      jump\t// out\n        /* \"#utility.yul\":4987:5295   */\n    tag_57:\n        /* \"#utility.yul\":5049:5053   */\n      0x00\n        /* \"#utility.yul\":5139:5157   */\n      0xffffffffffffffff\n        /* \"#utility.yul\":5131:5137   */\n      dup3\n        /* \"#utility.yul\":5128:5158   */\n      gt\n        /* \"#utility.yul\":5125:5181   */\n      iszero\n      tag_131\n      jumpi\n        /* \"#utility.yul\":5161:5179   */\n      tag_132\n      tag_54\n      jump\t// in\n    tag_132:\n        /* \"#utility.yul\":5125:5181   */\n    tag_131:\n        /* \"#utility.yul\":5199:5228   */\n      tag_133\n        /* \"#utility.yul\":5221:5227   */\n      dup3\n        /* \"#utility.yul\":5199:5228   */\n      tag_38\n      jump\t// in\n    tag_133:\n        /* \"#utility.yul\":5191:5228   */\n      swap1\n      pop\n        /* \"#utility.yul\":5283:5287   */\n      0x20\n        /* \"#utility.yul\":5277:5281   */\n      dup2\n        /* \"#utility.yul\":5273:5288   */\n      add\n        /* \"#utility.yul\":5265:5288   */\n      swap1\n      pop\n        /* \"#utility.yul\":4987:5295   */\n      swap2\n      swap1\n      pop\n      jump\t// out\n        /* \"#utility.yul\":5301:5449   */\n    tag_58:\n        /* \"#utility.yul\":5399:5405   */\n      dup3\n        /* \"#utility.yul\":5394:5397   */\n      dup2\n        /* \"#utility.yul\":5389:5392   */\n      dup4\n        /* \"#utility.yul\":5376:5406   */\n      calldatacopy\n        /* \"#utility.yul\":5440:5441   */\n      0x00\n        /* \"#utility.yul\":5431:5437   */\n      dup4\n        /* \"#utility.yul\":5426:5429   */\n      dup4\n        /* \"#utility.yul\":5422:5438   */\n      add\n        /* \"#utility.yul\":5415:5442   */\n      mstore\n        /* \"#utility.yul\":5301:5449   */\n      pop\n      pop\n      pop\n      jump\t// out\n        /* \"#utility.yul\":5455:5880   */\n    tag_59:\n        /* \"#utility.yul\":5533:5538   */\n      0x00\n        /* \"#utility.yul\":5558:5624   */\n      tag_136\n        /* \"#utility.yul\":5574:5623   */\n      tag_137\n        /* \"#utility.yul\":5616:5622   */\n      dup5\n        /* \"#utility.yul\":5574:5623   */\n      tag_57\n      jump\t// in\n    tag_137:\n        /* \"#utility.yul\":5558:5624   */\n      tag_56\n      jump\t// in\n    tag_136:\n        /* \"#utility.yul\":5549:5624   */\n      swap1\n      pop\n        /* \"#utility.yul\":5647:5653   */\n      dup3\n        /* \"#utility.yul\":5640:5645   */\n      dup2\n        /* \"#utility.yul\":5633:5654   */\n      mstore\n        /* \"#utility.yul\":5685:5689   */\n      0x20\n        /* \"#utility.yul\":5678:5683   */\n      dup2\n        /* \"#utility.yul\":5674:5690   */\n      add\n        /* \"#utility.yul\":5723:5726   */\n      dup5\n        /* \"#utility.yul\":5714:5720   */\n      dup5\n        /* \"#utility.yul\":5709:5712   */\n      dup5\n        /* \"#utility.yul\":5705:5721   */\n      add\n        /* \"#utility.yul\":5702:5727   */\n      gt\n        /* \"#utility.yul\":5699:5811   */\n      iszero\n      tag_138\n      jumpi\n        /* \"#utility.yul\":5730:5809   */\n      tag_139\n      tag_53\n      jump\t// in\n    tag_139:\n        /* \"#utility.yul\":5699:5811   */\n    tag_138:\n        /* \"#utility.yul\":5820:5874   */\n      tag_140\n        /* \"#utility.yul\":5867:5873   */\n      dup5\n        /* \"#utility.yul\":5862:5865   */\n      dup3\n        /* \"#utility.yul\":5857:5860   */\n      dup6\n        /* \"#utility.yul\":5820:5874   */\n      tag_58\n      jump\t// in\n    tag_140:\n        /* \"#utility.yul\":5539:5880   */\n      pop\n        /* \"#utility.yul\":5455:5880   */\n      swap4\n      swap3\n      pop\n      pop\n      pop\n      jump\t// out\n        /* \"#utility.yul\":5900:6240   */\n    tag_60:\n        /* \"#utility.yul\":5956:5961   */\n      0x00\n        /* \"#utility.yul\":6005:6008   */\n      dup3\n        /* \"#utility.yul\":5998:6002   */\n      0x1f\n        /* \"#utility.yul\":5990:5996   */\n      dup4\n        /* \"#utility.yul\":5986:6003   */\n      add\n        /* \"#utility.yul\":5982:6009   */\n      slt\n        /* \"#utility.yul\":5972:6094   */\n      tag_142\n      jumpi\n        /* \"#utility.yul\":6013:6092   */\n      tag_143\n      tag_52\n      jump\t// in\n    tag_143:\n        /* \"#utility.yul\":5972:6094   */\n    tag_142:\n        /* \"#utility.yul\":6130:6136   */\n      dup2\n        /* \"#utility.yul\":6117:6137   */\n      calldataload\n        /* \"#utility.yul\":6155:6234   */\n      tag_144\n        /* \"#utility.yul\":6230:6233   */\n      dup5\n        /* \"#utility.yul\":6222:6228   */\n      dup3\n        /* \"#utility.yul\":6215:6219   */\n      0x20\n        /* \"#utility.yul\":6207:6213   */\n      dup7\n        /* \"#utility.yul\":6203:6220   */\n      add\n        /* \"#utility.yul\":6155:6234   */\n      tag_59\n      jump\t// in\n    tag_144:\n        /* \"#utility.yul\":6146:6234   */\n      swap2\n      pop\n        /* \"#utility.yul\":5962:6240   */\n      pop\n        /* \"#utility.yul\":5900:6240   */\n      swap3\n      swap2\n      pop\n      pop\n      jump\t// out\n        /* \"#utility.yul\":6246:6368   */\n    tag_61:\n        /* \"#utility.yul\":6319:6343   */\n      tag_146\n        /* \"#utility.yul\":6337:6342   */\n      dup2\n        /* \"#utility.yul\":6319:6343   */\n      tag_40\n      jump\t// in\n    tag_146:\n        /* \"#utility.yul\":6312:6317   */\n      dup2\n        /* \"#utility.yul\":6309:6344   */\n      eq\n        /* \"#utility.yul\":6299:6362   */\n      tag_147\n      jumpi\n        /* \"#utility.yul\":6358:6359   */\n      0x00\n        /* \"#utility.yul\":6355:6356   */\n      dup1\n        /* \"#utility.yul\":6348:6360   */\n      revert\n        /* \"#utility.yul\":6299:6362   */\n    tag_147:\n        /* \"#utility.yul\":6246:6368   */\n      pop\n      jump\t// out\n        /* \"#utility.yul\":6374:6513   */\n    tag_62:\n        /* \"#utility.yul\":6420:6425   */\n      0x00\n        /* \"#utility.yul\":6458:6464   */\n      dup2\n        /* \"#utility.yul\":6445:6465   */\n      calldataload\n        /* \"#utility.yul\":6436:6465   */\n      swap1\n      pop\n        /* \"#utility.yul\":6474:6507   */\n      tag_149\n        /* \"#utility.yul\":6501:6506   */\n      dup2\n        /* \"#utility.yul\":6474:6507   */\n      tag_61\n      jump\t// in\n    tag_149:\n        /* \"#utility.yul\":6374:6513   */\n      swap3\n      swap2\n      pop\n      pop\n      jump\t// out\n        /* \"#utility.yul\":6519:6635   */\n    tag_63:\n        /* \"#utility.yul\":6589:6610   */\n      tag_151\n        /* \"#utility.yul\":6604:6609   */\n      dup2\n        /* \"#utility.yul\":6589:6610   */\n      tag_42\n      jump\t// in\n    tag_151:\n        /* \"#utility.yul\":6582:6587   */\n      dup2\n        /* \"#utility.yul\":6579:6611   */\n      eq\n        /* \"#utility.yul\":6569:6629   */\n      tag_152\n      jumpi\n        /* \"#utility.yul\":6625:6626   */\n      0x00\n        /* \"#utility.yul\":6622:6623   */\n      dup1\n        /* \"#utility.yul\":6615:6627   */\n      revert\n        /* \"#utility.yul\":6569:6629   */\n    tag_152:\n        /* \"#utility.yul\":6519:6635   */\n      pop\n      jump\t// out\n        /* \"#utility.yul\":6641:6774   */\n    tag_64:\n        /* \"#utility.yul\":6684:6689   */\n      0x00\n        /* \"#utility.yul\":6722:6728   */\n      dup2\n        /* \"#utility.yul\":6709:6729   */\n      calldataload\n        /* \"#utility.yul\":6700:6729   */\n      swap1\n      pop\n        /* \"#utility.yul\":6738:6768   */\n      tag_154\n        /* \"#utility.yul\":6762:6767   */\n      dup2\n        /* \"#utility.yul\":6738:6768   */\n      tag_63\n      jump\t// in\n    tag_154:\n        /* \"#utility.yul\":6641:6774   */\n      swap3\n      swap2\n      pop\n      pop\n      jump\t// out\n        /* \"#utility.yul\":6780:7573   */\n    tag_16:\n        /* \"#utility.yul\":6864:6870   */\n      0x00\n        /* \"#utility.yul\":6872:6878   */\n      dup1\n        /* \"#utility.yul\":6880:6886   */\n      0x00\n        /* \"#utility.yul\":6929:6931   */\n      0x60\n        /* \"#utility.yul\":6917:6926   */\n      dup5\n        /* \"#utility.yul\":6908:6915   */\n      dup7\n        /* \"#utility.yul\":6904:6927   */\n      sub\n        /* \"#utility.yul\":6900:6932   */\n      slt\n        /* \"#utility.yul\":6897:7016   */\n      iszero\n      tag_156\n      jumpi\n        /* \"#utility.yul\":6935:7014   */\n      tag_157\n      tag_50\n      jump\t// in\n    tag_157:\n        /* \"#utility.yul\":6897:7016   */\n    tag_156:\n        /* \"#utility.yul\":7083:7084   */\n      0x00\n        /* \"#utility.yul\":7072:7081   */\n      dup5\n        /* \"#utility.yul\":7068:7085   */\n      add\n        /* \"#utility.yul\":7055:7086   */\n      calldataload\n        /* \"#utility.yul\":7113:7131   */\n      0xffffffffffffffff\n        /* \"#utility.yul\":7105:7111   */\n      dup2\n        /* \"#utility.yul\":7102:7132   */\n      gt\n        /* \"#utility.yul\":7099:7216   */\n      iszero\n      tag_158\n      jumpi\n        /* \"#utility.yul\":7135:7214   */\n      tag_159\n      tag_51\n      jump\t// in\n    tag_159:\n        /* \"#utility.yul\":7099:7216   */\n    tag_158:\n        /* \"#utility.yul\":7240:7303   */\n      tag_160\n        /* \"#utility.yul\":7295:7302   */\n      dup7\n        /* \"#utility.yul\":7286:7292   */\n      dup3\n        /* \"#utility.yul\":7275:7284   */\n      dup8\n        /* \"#utility.yul\":7271:7293   */\n      add\n        /* \"#utility.yul\":7240:7303   */\n      tag_60\n      jump\t// in\n    tag_160:\n        /* \"#utility.yul\":7230:7303   */\n      swap4\n      pop\n        /* \"#utility.yul\":7026:7313   */\n      pop\n        /* \"#utility.yul\":7352:7354   */\n      0x20\n        /* \"#utility.yul\":7378:7431   */\n      tag_161\n        /* \"#utility.yul\":7423:7430   */\n      dup7\n        /* \"#utility.yul\":7414:7420   */\n      dup3\n        /* \"#utility.yul\":7403:7412   */\n      dup8\n        /* \"#utility.yul\":7399:7421   */\n      add\n        /* \"#utility.yul\":7378:7431   */\n      tag_62\n      jump\t// in\n    tag_161:\n        /* \"#utility.yul\":7368:7431   */\n      swap3\n      pop\n        /* \"#utility.yul\":7323:7441   */\n      pop\n        /* \"#utility.yul\":7480:7482   */\n      0x40\n        /* \"#utility.yul\":7506:7556   */\n      tag_162\n        /* \"#utility.yul\":7548:7555   */\n      dup7\n        /* \"#utility.yul\":7539:7545   */\n      dup3\n        /* \"#utility.yul\":7528:7537   */\n      dup8\n        /* \"#utility.yul\":7524:7546   */\n      add\n        /* \"#utility.yul\":7506:7556   */\n      tag_64\n      jump\t// in\n    tag_162:\n        /* \"#utility.yul\":7496:7556   */\n      swap2\n      pop\n        /* \"#utility.yul\":7451:7566   */\n      pop\n        /* \"#utility.yul\":6780:7573   */\n      swap3\n      pop\n      swap3\n      pop\n      swap3\n      jump\t// out\n        /* \"#utility.yul\":7579:7759   */\n    tag_65:\n        /* \"#utility.yul\":7627:7704   */\n      0x4e487b7100000000000000000000000000000000000000000000000000000000\n        /* \"#utility.yul\":7624:7625   */\n      0x00\n        /* \"#utility.yul\":7617:7705   */\n      mstore\n        /* \"#utility.yul\":7724:7728   */\n      0x22\n        /* \"#utility.yul\":7721:7722   */\n      0x04\n        /* \"#utility.yul\":7714:7729   */\n      mstore\n        /* \"#utility.yul\":7748:7752   */\n      0x24\n        /* \"#utility.yul\":7745:7746   */\n      0x00\n        /* \"#utility.yul\":7738:7753   */\n      revert\n        /* \"#utility.yul\":7765:8085   */\n    tag_19:\n        /* \"#utility.yul\":7809:7815   */\n      0x00\n        /* \"#utility.yul\":7846:7847   */\n      0x02\n        /* \"#utility.yul\":7840:7844   */\n      dup3\n        /* \"#utility.yul\":7836:7848   */\n      div\n        /* \"#utility.yul\":7826:7848   */\n      swap1\n      pop\n        /* \"#utility.yul\":7893:7894   */\n      0x01\n        /* \"#utility.yul\":7887:7891   */\n      dup3\n        /* \"#utility.yul\":7883:7895   */\n      and\n        /* \"#utility.yul\":7914:7932   */\n      dup1\n        /* \"#utility.yul\":7904:7985   */\n      tag_165\n      jumpi\n        /* \"#utility.yul\":7970:7974   */\n      0x7f\n        /* \"#utility.yul\":7962:7968   */\n      dup3\n        /* \"#utility.yul\":7958:7975   */\n      and\n        /* \"#utility.yul\":7948:7975   */\n      swap2\n      pop\n        /* \"#utility.yul\":7904:7985   */\n    tag_165:\n        /* \"#utility.yul\":8032:8034   */\n      0x20\n        /* \"#utility.yul\":8024:8030   */\n      dup3\n        /* \"#utility.yul\":8021:8035   */\n      lt\n        /* \"#utility.yul\":8001:8019   */\n      dup2\n        /* \"#utility.yul\":7998:8036   */\n      sub\n        /* \"#utility.yul\":7995:8079   */\n      tag_166\n      jumpi\n        /* \"#utility.yul\":8051:8069   */\n      tag_167\n      tag_65\n      jump\t// in\n    tag_167:\n        /* \"#utility.yul\":7995:8079   */\n    tag_166:\n        /* \"#utility.yul\":7816:8085   */\n      pop\n        /* \"#utility.yul\":7765:8085   */\n      swap2\n      swap1\n      pop\n      jump\t// out\n        /* \"#utility.yul\":8091:8232   */\n    tag_66:\n        /* \"#utility.yul\":8140:8144   */\n      0x00\n        /* \"#utility.yul\":8163:8166   */\n      dup2\n        /* \"#utility.yul\":8155:8166   */\n      swap1\n      pop\n        /* \"#utility.yul\":8186:8189   */\n      dup2\n        /* \"#utility.yul\":8183:8184   */\n      0x00\n        /* \"#utility.yul\":8176:8190   */\n      mstore\n        /* \"#utility.yul\":8220:8224   */\n      0x20\n        /* \"#utility.yul\":8217:8218   */\n      0x00\n        /* \"#utility.yul\":8207:8225   */\n      keccak256\n        /* \"#utility.yul\":8199:8225   */\n      swap1\n      pop\n        /* \"#utility.yul\":8091:8232   */\n      swap2\n      swap1\n      pop\n      jump\t// out\n        /* \"#utility.yul\":8238:8331   */\n    tag_67:\n        /* \"#utility.yul\":8275:8281   */\n      0x00\n        /* \"#utility.yul\":8322:8324   */\n      0x20\n        /* \"#utility.yul\":8317:8319   */\n      0x1f\n        /* \"#utility.yul\":8310:8315   */\n      dup4\n        /* \"#utility.yul\":8306:8320   */\n      add\n        /* \"#utility.yul\":8302:8325   */\n      div\n        /* \"#utility.yul\":8292:8325   */\n      swap1\n      pop\n        /* \"#utility.yul\":8238:8331   */\n      swap2\n      swap1\n      pop\n      jump\t// out\n        /* \"#utility.yul\":8337:8444   */\n    tag_68:\n        /* \"#utility.yul\":8381:8389   */\n      0x00\n        /* \"#utility.yul\":8431:8436   */\n      dup3\n        /* \"#utility.yul\":8425:8429   */\n      dup3\n        /* \"#utility.yul\":8421:8437   */\n      shl\n        /* \"#utility.yul\":8400:8437   */\n      swap1\n      pop\n        /* \"#utility.yul\":8337:8444   */\n      swap3\n      swap2\n      pop\n      pop\n      jump\t// out\n        /* \"#utility.yul\":8450:8843   */\n    tag_69:\n        /* \"#utility.yul\":8519:8525   */\n      0x00\n        /* \"#utility.yul\":8569:8570   */\n      0x08\n        /* \"#utility.yul\":8557:8567   */\n      dup4\n        /* \"#utility.yul\":8553:8571   */\n      mul\n        /* \"#utility.yul\":8592:8689   */\n      tag_172\n        /* \"#utility.yul\":8622:8688   */\n      0xffffffffffffffffffffffffffffffffffffffffffffffffffffffffffffffff\n        /* \"#utility.yul\":8611:8620   */\n      dup3\n        /* \"#utility.yul\":8592:8689   */\n      tag_68\n      jump\t// in\n    tag_172:\n        /* \"#utility.yul\":8710:8749   */\n      tag_173\n        /* \"#utility.yul\":8740:8748   */\n      dup7\n        /* \"#utility.yul\":8729:8738   */\n      dup4\n        /* \"#utility.yul\":8710:8749   */\n      tag_68\n      jump\t// in\n    tag_173:\n        /* \"#utility.yul\":8698:8749   */\n      swap6\n      pop\n        /* \"#utility.yul\":8782:8786   */\n      dup1\n        /* \"#utility.yul\":8778:8787   */\n      not\n        /* \"#utility.yul\":8771:8776   */\n      dup5\n        /* \"#utility.yul\":8767:8788   */\n      and\n        /* \"#utility.yul\":8758:8788   */\n      swap4\n      pop\n        /* \"#utility.yul\":8831:8835   */\n      dup1\n        /* \"#utility.yul\":8821:8829   */\n      dup7\n        /* \"#utility.yul\":8817:8836   */\n      and\n        /* \"#utility.yul\":8810:8815   */\n      dup5\n        /* \"#utility.yul\":8807:8837   */\n      or\n        /* \"#utility.yul\":8797:8837   */\n      swap3\n      pop\n        /* \"#utility.yul\":8526:8843   */\n      pop\n      pop\n        /* \"#utility.yul\":8450:8843   */\n      swap4\n      swap3\n      pop\n      pop\n      pop\n      jump\t// out\n        /* \"#utility.yul\":8849:8909   */\n    tag_70:\n        /* \"#utility.yul\":8877:8880   */\n      0x00\n        /* \"#utility.yul\":8898:8903   */\n      dup2\n        /* \"#utility.yul\":8891:8903   */\n      swap1\n      pop\n        /* \"#utility.yul\":8849:8909   */\n      swap2\n      swap1\n      pop\n      jump\t// out\n        /* \"#utility.yul\":8915:9057   */\n    tag_71:\n        /* \"#utility.yul\":8965:8974   */\n      0x00\n        /* \"#utility.yul\":8998:9051   */\n      tag_176\n        /* \"#utility.yul\":9016:9050   */\n      tag_177\n        /* \"#utility.yul\":9025:9049   */\n      tag_178\n        /* \"#utility.yul\":9043:9048   */\n      dup5\n        /* \"#utility.yul\":9025:9049   */\n      tag_40\n      jump\t// in\n    tag_178:\n        /* \"#utility.yul\":9016:9050   */\n      tag_70\n      jump\t// in\n    tag_177:\n        /* \"#utility.yul\":8998:9051   */\n      tag_40\n      jump\t// in\n    tag_176:\n        /* \"#utility.yul\":8985:9051   */\n      swap1\n      pop\n        /* \"#utility.yul\":8915:9057   */\n      swap2\n      swap1\n      pop\n      jump\t// out\n        /* \"#utility.yul\":9063:9138   */\n    tag_72:\n        /* \"#utility.yul\":9106:9109   */\n      0x00\n        /* \"#utility.yul\":9127:9132   */\n      dup2\n        /* \"#utility.yul\":9120:9132   */\n      swap1\n      pop\n        /* \"#utility.yul\":9063:9138   */\n      swap2\n      swap1\n      pop\n      jump\t// out\n        /* \"#utility.yul\":9144:9413   */\n    tag_73:\n        /* \"#utility.yul\":9254:9293   */\n      tag_181\n        /* \"#utility.yul\":9285:9292   */\n      dup4\n        /* \"#utility.yul\":9254:9293   */\n      tag_71\n      jump\t// in\n    tag_181:\n        /* \"#utility.yul\":9315:9406   */\n      tag_182\n        /* \"#utility.yul\":9364:9405   */\n      tag_183\n        /* \"#utility.yul\":9388:9404   */\n      dup3\n        /* \"#utility.yul\":9364:9405   */\n      tag_72\n      jump\t// in\n    tag_183:\n        /* \"#utility.yul\":9356:9362   */\n      dup5\n        /* \"#utility.yul\":9349:9353   */\n      dup5\n        /* \"#utility.yul\":9343:9354   */\n      sload\n        /* \"#utility.yul\":9315:9406   */\n      tag_69\n      jump\t// in\n    tag_182:\n        /* \"#utility.yul\":9309:9313   */\n      dup3\n        /* \"#utility.yul\":9302:9407   */\n      sstore\n        /* \"#utility.yul\":9220:9413   */\n      pop\n        /* \"#utility.yul\":9144:9413   */\n      pop\n      pop\n      pop\n      jump\t// out\n        /* \"#utility.yul\":9419:9492   */\n    tag_74:\n        /* \"#utility.yul\":9464:9467   */\n      0x00\n        /* \"#utility.yul\":9419:9492   */\n      swap1\n      jump\t// out\n        /* \"#utility.yul\":9498:9687   */\n    tag_75:\n        /* \"#utility.yul\":9575:9607   */\n      tag_186\n      tag_74\n      jump\t// in\n    tag_186:\n        /* \"#utility.yul\":9616:9681   */\n      tag_187\n        /* \"#utility.yul\":9674:9680   */\n      dup2\n        /* \"#utility.yul\":9666:9672   */\n      dup5\n        /* \"#utility.yul\":9660:9664   */\n      dup5\n        /* \"#utility.yul\":9616:9681   */\n      tag_73\n      jump\t// in\n    tag_187:\n        /* \"#utility.yul\":9551:9687   */\n      pop\n        /* \"#utility.yul\":9498:9687   */\n      pop\n      pop\n      jump\t// out\n        /* \"#utility.yul\":9693:9879   */\n    tag_76:\n        /* \"#utility.yul\":9753:9873   */\n    tag_189:\n        /* \"#utility.yul\":9770:9773   */\n      dup2\n        /* \"#utility.yul\":9763:9768   */\n      dup2\n        /* \"#utility.yul\":9760:9774   */\n      lt\n        /* \"#utility.yul\":9753:9873   */\n      iszero\n      tag_191\n      jumpi\n        /* \"#utility.yul\":9824:9863   */\n      tag_192\n        /* \"#utility.yul\":9861:9862   */\n      0x00\n        /* \"#utility.yul\":9854:9859   */\n      dup3\n        /* \"#utility.yul\":9824:9863   */\n      tag_75\n      jump\t// in\n    tag_192:\n        /* \"#utility.yul\":9797:9798   */\n      0x01\n        /* \"#utility.yul\":9790:9795   */\n      dup2\n        /* \"#utility.yul\":9786:9799   */\n      add\n        /* \"#utility.yul\":9777:9799   */\n      swap1\n      pop\n        /* \"#utility.yul\":9753:9873   */\n      jump(tag_189)\n    tag_191:\n        /* \"#utility.yul\":9693:9879   */\n      pop\n      pop\n      jump\t// out\n        /* \"#utility.yul\":9885:10428   */\n    tag_77:\n        /* \"#utility.yul\":9986:9988   */\n      0x1f\n        /* \"#utility.yul\":9981:9984   */\n      dup3\n        /* \"#utility.yul\":9978:9989   */\n      gt\n        /* \"#utility.yul\":9975:10421   */\n      iszero\n      tag_194\n      jumpi\n        /* \"#utility.yul\":10020:10058   */\n      tag_195\n        /* \"#utility.yul\":10052:10057   */\n      dup2\n        /* \"#utility.yul\":10020:10058   */\n      tag_66\n      jump\t// in\n    tag_195:\n        /* \"#utility.yul\":10104:10133   */\n      tag_196\n        /* \"#utility.yul\":10122:10132   */\n      dup5\n        /* \"#utility.yul\":10104:10133   */\n      tag_67\n      jump\t// in\n    tag_196:\n        /* \"#utility.yul\":10094:10102   */\n      dup2\n        /* \"#utility.yul\":10090:10134   */\n      add\n        /* \"#utility.yul\":10287:10289   */\n      0x20\n        /* \"#utility.yul\":10275:10285   */\n      dup6\n        /* \"#utility.yul\":10272:10290   */\n      lt\n        /* \"#utility.yul\":10269:10318   */\n      iszero\n      tag_197\n      jumpi\n        /* \"#utility.yul\":10308:10316   */\n      dup2\n        /* \"#utility.yul\":10293:10316   */\n      swap1\n      pop\n        /* \"#utility.yul\":10269:10318   */\n    tag_197:\n        /* \"#utility.yul\":10331:10411   */\n      tag_198\n        /* \"#utility.yul\":10387:10409   */\n      tag_199\n        /* \"#utility.yul\":10405:10408   */\n      dup6\n        /* \"#utility.yul\":10387:10409   */\n      tag_67\n      jump\t// in\n    tag_199:\n        /* \"#utility.yul\":10377:10385   */\n      dup4\n        /* \"#utility.yul\":10373:10410   */\n      add\n        /* \"#utility.yul\":10360:10371   */\n      dup3\n        /* \"#utility.yul\":10331:10411   */\n      tag_76\n      jump\t// in\n    tag_198:\n        /* \"#utility.yul\":9990:10421   */\n      pop\n      pop\n        /* \"#utility.yul\":9975:10421   */\n    tag_194:\n        /* \"#utility.yul\":9885:10428   */\n      pop\n      pop\n      pop\n      jump\t// out\n        /* \"#utility.yul\":10434:10551   */\n    tag_78:\n        /* \"#utility.yul\":10488:10496   */\n      0x00\n        /* \"#utility.yul\":10538:10543   */\n      dup3\n        /* \"#utility.yul\":10532:10536   */\n      dup3\n        /* \"#utility.yul\":10528:10544   */\n      shr\n        /* \"#utility.yul\":10507:10544   */\n      swap1\n      pop\n        /* \"#utility.yul\":10434:10551   */\n      swap3\n      swap2\n      pop\n      pop\n      jump\t// out\n        /* \"#utility.yul\":10557:10726   */\n    tag_79:\n        /* \"#utility.yul\":10601:10607   */\n      0x00\n        /* \"#utility.yul\":10634:10685   */\n      tag_202\n        /* \"#utility.yul\":10682:10683   */\n      0x00\n        /* \"#utility.yul\":10678:10684   */\n      not\n        /* \"#utility.yul\":10670:10675   */\n      dup5\n        /* \"#utility.yul\":10667:10668   */\n      0x08\n        /* \"#utility.yul\":10663:10676   */\n      mul\n        /* \"#utility.yul\":10634:10685   */\n      tag_78\n      jump\t// in\n    tag_202:\n        /* \"#utility.yul\":10630:10686   */\n      not\n        /* \"#utility.yul\":10715:10719   */\n      dup1\n        /* \"#utility.yul\":10709:10713   */\n      dup4\n        /* \"#utility.yul\":10705:10720   */\n      and\n        /* \"#utility.yul\":10695:10720   */\n      swap2\n      pop\n        /* \"#utility.yul\":10608:10726   */\n      pop\n        /* \"#utility.yul\":10557:10726   */\n      swap3\n      swap2\n      pop\n      pop\n      jump\t// out\n        /* \"#utility.yul\":10731:11026   */\n    tag_80:\n        /* \"#utility.yul\":10807:10811   */\n      0x00\n        /* \"#utility.yul\":10953:10982   */\n      tag_204\n        /* \"#utility.yul\":10978:10981   */\n      dup4\n        /* \"#utility.yul\":10972:10976   */\n      dup4\n        /* \"#utility.yul\":10953:10982   */\n      tag_79\n      jump\t// in\n    tag_204:\n        /* \"#utility.yul\":10945:10982   */\n      swap2\n      pop\n        /* \"#utility.yul\":11015:11018   */\n      dup3\n        /* \"#utility.yul\":11012:11013   */\n      0x02\n        /* \"#utility.yul\":11008:11019   */\n      mul\n        /* \"#utility.yul\":11002:11006   */\n      dup3\n        /* \"#utility.yul\":10999:11020   */\n      or\n        /* \"#utility.yul\":10991:11020   */\n      swap1\n      pop\n        /* \"#utility.yul\":10731:11026   */\n      swap3\n      swap2\n      pop\n      pop\n      jump\t// out\n        /* \"#utility.yul\":11031:12426   */\n    tag_34:\n        /* \"#utility.yul\":11148:11185   */\n      tag_206\n        /* \"#utility.yul\":11181:11184   */\n      dup3\n        /* \"#utility.yul\":11148:11185   */\n      tag_35\n      jump\t// in\n    tag_206:\n        /* \"#utility.yul\":11250:11268   */\n      0xffffffffffffffff\n        /* \"#utility.yul\":11242:11248   */\n      dup2\n        /* \"#utility.yul\":11239:11269   */\n      gt\n        /* \"#utility.yul\":11236:11292   */\n      iszero\n      tag_207\n      jumpi\n        /* \"#utility.yul\":11272:11290   */\n      tag_208\n      tag_54\n      jump\t// in\n    tag_208:\n        /* \"#utility.yul\":11236:11292   */\n    tag_207:\n        /* \"#utility.yul\":11316:11354   */\n      tag_209\n        /* \"#utility.yul\":11348:11352   */\n      dup3\n        /* \"#utility.yul\":11342:11353   */\n      sload\n        /* \"#utility.yul\":11316:11354   */\n      tag_19\n      jump\t// in\n    tag_209:\n        /* \"#utility.yul\":11401:11468   */\n      tag_210\n        /* \"#utility.yul\":11461:11467   */\n      dup3\n        /* \"#utility.yul\":11453:11459   */\n      dup3\n        /* \"#utility.yul\":11447:11451   */\n      dup6\n        /* \"#utility.yul\":11401:11468   */\n      tag_77\n      jump\t// in\n    tag_210:\n        /* \"#utility.yul\":11495:11496   */\n      0x00\n        /* \"#utility.yul\":11519:11523   */\n      0x20\n        /* \"#utility.yul\":11506:11523   */\n      swap1\n      pop\n        /* \"#utility.yul\":11551:11553   */\n      0x1f\n        /* \"#utility.yul\":11543:11549   */\n      dup4\n        /* \"#utility.yul\":11540:11554   */\n      gt\n        /* \"#utility.yul\":11568:11569   */\n      0x01\n        /* \"#utility.yul\":11563:12181   */\n      dup2\n      eq\n      tag_212\n      jumpi\n        /* \"#utility.yul\":12225:12226   */\n      0x00\n        /* \"#utility.yul\":12242:12248   */\n      dup5\n        /* \"#utility.yul\":12239:12316   */\n      iszero\n      tag_213\n      jumpi\n        /* \"#utility.yul\":12291:12300   */\n      dup3\n        /* \"#utility.yul\":12286:12289   */\n      dup8\n        /* \"#utility.yul\":12282:12301   */\n      add\n        /* \"#utility.yul\":12276:12302   */\n      mload\n        /* \"#utility.yul\":12267:12302   */\n      swap1\n      pop\n        /* \"#utility.yul\":12239:12316   */\n    tag_213:\n        /* \"#utility.yul\":12342:12409   */\n      tag_214\n        /* \"#utility.yul\":12402:12408   */\n      dup6\n        /* \"#utility.yul\":12395:12400   */\n      dup3\n        /* \"#utility.yul\":12342:12409   */\n      tag_80\n      jump\t// in\n    tag_214:\n        /* \"#utility.yul\":12336:12340   */\n      dup7\n        /* \"#utility.yul\":12329:12410   */\n      sstore\n        /* \"#utility.yul\":12198:12420   */\n      pop\n        /* \"#utility.yul\":11533:12420   */\n      jump(tag_211)\n        /* \"#utility.yul\":11563:12181   */\n    tag_212:\n        /* \"#utility.yul\":11615:11619   */\n      0x1f\n        /* \"#utility.yul\":11611:11620   */\n      not\n        /* \"#utility.yul\":11603:11609   */\n      dup5\n        /* \"#utility.yul\":11599:11621   */\n      and\n        /* \"#utility.yul\":11649:11686   */\n      tag_215\n        /* \"#utility.yul\":11681:11685   */\n      dup7\n        /* \"#utility.yul\":11649:11686   */\n      tag_66\n      jump\t// in\n    tag_215:\n        /* \"#utility.yul\":11708:11709   */\n      0x00\n        /* \"#utility.yul\":11722:11930   */\n    tag_216:\n        /* \"#utility.yul\":11736:11743   */\n      dup3\n        /* \"#utility.yul\":11733:11734   */\n      dup2\n        /* \"#utility.yul\":11730:11744   */\n      lt\n        /* \"#utility.yul\":11722:11930   */\n      iszero\n      tag_218\n      jumpi\n        /* \"#utility.yul\":11815:11824   */\n      dup5\n        /* \"#utility.yul\":11810:11813   */\n      dup10\n        /* \"#utility.yul\":11806:11825   */\n      add\n        /* \"#utility.yul\":11800:11826   */\n      mload\n        /* \"#utility.yul\":11792:11798   */\n      dup3\n        /* \"#utility.yul\":11785:11827   */\n      sstore\n        /* \"#utility.yul\":11866:11867   */\n      0x01\n        /* \"#utility.yul\":11858:11864   */\n      dup3\n        /* \"#utility.yul\":11854:11868   */\n      add\n        /* \"#utility.yul\":11844:11868   */\n      swap2\n      pop\n        /* \"#utility.yul\":11913:11915   */\n      0x20\n        /* \"#utility.yul\":11902:11911   */\n      dup6\n        /* \"#utility.yul\":11898:11916   */\n      add\n        /* \"#utility.yul\":11885:11916   */\n      swap5\n      pop\n        /* \"#utility.yul\":11759:11763   */\n      0x20\n        /* \"#utility.yul\":11756:11757   */\n      dup2\n        /* \"#utility.yul\":11752:11764   */\n      add\n        /* \"#utility.yul\":11747:11764   */\n      swap1\n      pop\n        /* \"#utility.yul\":11722:11930   */\n      jump(tag_216)\n    tag_218:\n        /* \"#utility.yul\":11958:11964   */\n      dup7\n        /* \"#utility.yul\":11949:11956   */\n      dup4\n        /* \"#utility.yul\":11946:11965   */\n      lt\n        /* \"#utility.yul\":11943:12122   */\n      iszero\n      tag_219\n      jumpi\n        /* \"#utility.yul\":12016:12025   */\n      dup5\n        /* \"#utility.yul\":12011:12014   */\n      dup10\n        /* \"#utility.yul\":12007:12026   */\n      add\n        /* \"#utility.yul\":12001:12027   */\n      mload\n        /* \"#utility.yul\":12059:12107   */\n      tag_220\n        /* \"#utility.yul\":12101:12105   */\n      0x1f\n        /* \"#utility.yul\":12093:12099   */\n      dup10\n        /* \"#utility.yul\":12089:12106   */\n      and\n        /* \"#utility.yul\":12078:12087   */\n      dup3\n        /* \"#utility.yul\":12059:12107   */\n      tag_79\n      jump\t// in\n    tag_220:\n        /* \"#utility.yul\":12051:12057   */\n      dup4\n        /* \"#utility.yul\":12044:12108   */\n      sstore\n        /* \"#utility.yul\":11966:12122   */\n      pop\n        /* \"#utility.yul\":11943:12122   */\n    tag_219:\n        /* \"#utility.yul\":12168:12169   */\n      0x01\n        /* \"#utility.yul\":12164:12165   */\n      0x02\n        /* \"#utility.yul\":12156:12162   */\n      dup9\n        /* \"#utility.yul\":12152:12166   */\n      mul\n        /* \"#utility.yul\":12148:12170   */\n      add\n        /* \"#utility.yul\":12142:12146   */\n      dup9\n        /* \"#utility.yul\":12135:12171   */\n      sstore\n        /* \"#utility.yul\":11570:12181   */\n      pop\n      pop\n      pop\n        /* \"#utility.yul\":11533:12420   */\n    tag_211:\n      pop\n        /* \"#utility.yul\":11123:12426   */\n      pop\n      pop\n      pop\n        /* \"#utility.yul\":11031:12426   */\n      pop\n      pop\n      jump\t// out\n\n    auxdata: 0xa26469706673582212208f98bdb1fc7b026b217b5d17ad16b3ea9e8f5a79ef8032fd606d5a74b90f52c664736f6c634300081a0033\n}\n",
				"bytecode": {
					"linkReferences": {},
					"object": "6080604052348015600e575f80fd5b506109198061001c5f395ff3fe608060405234801561000f575f80fd5b506004361061003f575f3560e01c80636cc014de14610043578063993a04b7146100635780639a68197114610081575b5f80fd5b61004b61009d565b60405161005a9392919061030e565b60405180910390f35b61006b610145565b60405161007891906103fd565b60405180910390f35b61009b600480360381019061009691906105ae565b610211565b005b5f805f0180546100ac90610647565b80601f01602080910402602001604051908101604052809291908181526020018280546100d890610647565b80156101235780601f106100fa57610100808354040283529160200191610123565b820191905f5260205f20905b81548152906001019060200180831161010657829003601f168201915b505050505090806001015490806002015f9054906101000a900460ff16905083565b61014d61024b565b5f6040518060600160405290815f8201805461016890610647565b80601f016020809104026020016040519081016040528092919081815260200182805461019490610647565b80156101df5780601f106101b6576101008083540402835291602001916101df565b820191905f5260205f20905b8154815290600101906020018083116101c257829003601f168201915b5050505050815260200160018201548152602001600282015f9054906101000a900460ff161515151581525050905090565b825f800190816102219190610814565b50815f60010181905550805f6002015f6101000a81548160ff021916908315150217905550505050565b6040518060600160405280606081526020015f81526020015f151581525090565b5f81519050919050565b5f82825260208201905092915050565b8281835e5f83830152505050565b5f601f19601f8301169050919050565b5f6102ae8261026c565b6102b88185610276565b93506102c8818560208601610286565b6102d181610294565b840191505092915050565b5f819050919050565b6102ee816102dc565b82525050565b5f8115159050919050565b610308816102f4565b82525050565b5f6060820190508181035f83015261032681866102a4565b905061033560208301856102e5565b61034260408301846102ff565b949350505050565b5f82825260208201905092915050565b5f6103648261026c565b61036e818561034a565b935061037e818560208601610286565b61038781610294565b840191505092915050565b61039b816102dc565b82525050565b6103aa816102f4565b82525050565b5f606083015f8301518482035f8601526103ca828261035a565b91505060208301516103df6020860182610392565b5060408301516103f260408601826103a1565b508091505092915050565b5f6020820190508181035f83015261041581846103b0565b905092915050565b5f604051905090565b5f80fd5b5f80fd5b5f80fd5b5f80fd5b7f4e487b71000000000000000000000000000000000000000000000000000000005f52604160045260245ffd5b61046c82610294565b810181811067ffffffffffffffff8211171561048b5761048a610436565b5b80604052505050565b5f61049d61041d565b90506104a98282610463565b919050565b5f67ffffffffffffffff8211156104c8576104c7610436565b5b6104d182610294565b9050602081019050919050565b828183375f83830152505050565b5f6104fe6104f9846104ae565b610494565b90508281526020810184848401111561051a57610519610432565b5b6105258482856104de565b509392505050565b5f82601f8301126105415761054061042e565b5b81356105518482602086016104ec565b91505092915050565b610563816102dc565b811461056d575f80fd5b50565b5f8135905061057e8161055a565b92915050565b61058d816102f4565b8114610597575f80fd5b50565b5f813590506105a881610584565b92915050565b5f805f606084860312156105c5576105c4610426565b5b5f84013567ffffffffffffffff8111156105e2576105e161042a565b5b6105ee8682870161052d565b93505060206105ff86828701610570565b92505060406106108682870161059a565b9150509250925092565b7f4e487b71000000000000000000000000000000000000000000000000000000005f52602260045260245ffd5b5f600282049050600182168061065e57607f821691505b6020821081036106715761067061061a565b5b50919050565b5f819050815f5260205f209050919050565b5f6020601f8301049050919050565b5f82821b905092915050565b5f600883026106d37fffffffffffffffffffffffffffffffffffffffffffffffffffffffffffffffff82610698565b6106dd8683610698565b95508019841693508086168417925050509392505050565b5f819050919050565b5f61071861071361070e846102dc565b6106f5565b6102dc565b9050919050565b5f819050919050565b610731836106fe565b61074561073d8261071f565b8484546106a4565b825550505050565b5f90565b61075961074d565b610764818484610728565b505050565b5b818110156107875761077c5f82610751565b60018101905061076a565b5050565b601f8211156107cc5761079d81610677565b6107a684610689565b810160208510156107b5578190505b6107c96107c185610689565b830182610769565b50505b505050565b5f82821c905092915050565b5f6107ec5f19846008026107d1565b1980831691505092915050565b5f61080483836107dd565b9150826002028217905092915050565b61081d8261026c565b67ffffffffffffffff81111561083657610835610436565b5b6108408254610647565b61084b82828561078b565b5f60209050601f83116001811461087c575f841561086a578287015190505b61087485826107f9565b8655506108db565b601f19841661088a86610677565b5f5b828110156108b15784890151825560018201915060208501945060208101905061088c565b868310156108ce57848901516108ca601f8916826107dd565b8355505b6001600288020188555050505b50505050505056fea26469706673582212208f98bdb1fc7b026b217b5d17ad16b3ea9e8f5a79ef8032fd606d5a74b90f52c664736f6c634300081a0033",
					"opcodes": "PUSH1 0x80 PUSH1 0x40 MSTORE CALLVALUE DUP1 ISZERO PUSH1 0xE JUMPI PUSH0 DUP1 REVERT JUMPDEST POP PUSH2 0x919 DUP1 PUSH2 0x1C PUSH0 CODECOPY PUSH0 RETURN INVALID PUSH1 0x80 PUSH1 0x40 MSTORE CALLVALUE DUP1 ISZERO PUSH2 0xF JUMPI PUSH0 DUP1 REVERT JUMPDEST POP PUSH1 0x4 CALLDATASIZE LT PUSH2 0x3F JUMPI PUSH0 CALLDATALOAD PUSH1 0xE0 SHR DUP1 PUSH4 0x6CC014DE EQ PUSH2 0x43 JUMPI DUP1 PUSH4 0x993A04B7 EQ PUSH2 0x63 JUMPI DUP1 PUSH4 0x9A681971 EQ PUSH2 0x81 JUMPI JUMPDEST PUSH0 DUP1 REVERT JUMPDEST PUSH2 0x4B PUSH2 0x9D JUMP JUMPDEST PUSH1 0x40 MLOAD PUSH2 0x5A SWAP4 SWAP3 SWAP2 SWAP1 PUSH2 0x30E JUMP JUMPDEST PUSH1 0x40 MLOAD DUP1 SWAP2 SUB SWAP1 RETURN JUMPDEST PUSH2 0x6B PUSH2 0x145 JUMP JUMPDEST PUSH1 0x40 MLOAD PUSH2 0x78 SWAP2 SWAP1 PUSH2 0x3FD JUMP JUMPDEST PUSH1 0x40 MLOAD DUP1 SWAP2 SUB SWAP1 RETURN JUMPDEST PUSH2 0x9B PUSH1 0x4 DUP1 CALLDATASIZE SUB DUP2 ADD SWAP1 PUSH2 0x96 SWAP2 SWAP1 PUSH2 0x5AE JUMP JUMPDEST PUSH2 0x211 JUMP JUMPDEST STOP JUMPDEST PUSH0 DUP1 PUSH0 ADD DUP1 SLOAD PUSH2 0xAC SWAP1 PUSH2 0x647 JUMP JUMPDEST DUP1 PUSH1 0x1F ADD PUSH1 0x20 DUP1 SWAP2 DIV MUL PUSH1 0x20 ADD PUSH1 0x40 MLOAD SWAP1 DUP2 ADD PUSH1 0x40 MSTORE DUP1 SWAP3 SWAP2 SWAP1 DUP2 DUP2 MSTORE PUSH1 0x20 ADD DUP3 DUP1 SLOAD PUSH2 0xD8 SWAP1 PUSH2 0x647 JUMP JUMPDEST DUP1 ISZERO PUSH2 0x123 JUMPI DUP1 PUSH1 0x1F LT PUSH2 0xFA JUMPI PUSH2 0x100 DUP1 DUP4 SLOAD DIV MUL DUP4 MSTORE SWAP2 PUSH1 0x20 ADD SWAP2 PUSH2 0x123 JUMP JUMPDEST DUP3 ADD SWAP2 SWAP1 PUSH0 MSTORE PUSH1 0x20 PUSH0 KECCAK256 SWAP1 JUMPDEST DUP2 SLOAD DUP2 MSTORE SWAP1 PUSH1 0x1 ADD SWAP1 PUSH1 0x20 ADD DUP1 DUP4 GT PUSH2 0x106 JUMPI DUP3 SWAP1 SUB PUSH1 0x1F AND DUP3 ADD SWAP2 JUMPDEST POP POP POP POP POP SWAP1 DUP1 PUSH1 0x1 ADD SLOAD SWAP1 DUP1 PUSH1 0x2 ADD PUSH0 SWAP1 SLOAD SWAP1 PUSH2 0x100 EXP SWAP1 DIV PUSH1 0xFF AND SWAP1 POP DUP4 JUMP JUMPDEST PUSH2 0x14D PUSH2 0x24B JUMP JUMPDEST PUSH0 PUSH1 0x40 MLOAD DUP1 PUSH1 0x60 ADD PUSH1 0x40 MSTORE SWAP1 DUP2 PUSH0 DUP3 ADD DUP1 SLOAD PUSH2 0x168 SWAP1 PUSH2 0x647 JUMP JUMPDEST DUP1 PUSH1 0x1F ADD PUSH1 0x20 DUP1 SWAP2 DIV MUL PUSH1 0x20 ADD PUSH1 0x40 MLOAD SWAP1 DUP2 ADD PUSH1 0x40 MSTORE DUP1 SWAP3 SWAP2 SWAP1 DUP2 DUP2 MSTORE PUSH1 0x20 ADD DUP3 DUP1 SLOAD PUSH2 0x194 SWAP1 PUSH2 0x647 JUMP JUMPDEST DUP1 ISZERO PUSH2 0x1DF JUMPI DUP1 PUSH1 0x1F LT PUSH2 0x1B6 JUMPI PUSH2 0x100 DUP1 DUP4 SLOAD DIV MUL DUP4 MSTORE SWAP2 PUSH1 0x20 ADD SWAP2 PUSH2 0x1DF JUMP JUMPDEST DUP3 ADD SWAP2 SWAP1 PUSH0 MSTORE PUSH1 0x20 PUSH0 KECCAK256 SWAP1 JUMPDEST DUP2 SLOAD DUP2 MSTORE SWAP1 PUSH1 0x1 ADD SWAP1 PUSH1 0x20 ADD DUP1 DUP4 GT PUSH2 0x1C2 JUMPI DUP3 SWAP1 SUB PUSH1 0x1F AND DUP3 ADD SWAP2 JUMPDEST POP POP POP POP POP DUP2 MSTORE PUSH1 0x20 ADD PUSH1 0x1 DUP3 ADD SLOAD DUP2 MSTORE PUSH1 0x20 ADD PUSH1 0x2 DUP3 ADD PUSH0 SWAP1 SLOAD SWAP1 PUSH2 0x100 EXP SWAP1 DIV PUSH1 0xFF AND ISZERO ISZERO ISZERO ISZERO DUP2 MSTORE POP POP SWAP1 POP SWAP1 JUMP JUMPDEST DUP3 PUSH0 DUP1 ADD SWAP1 DUP2 PUSH2 0x221 SWAP2 SWAP1 PUSH2 0x814 JUMP JUMPDEST POP DUP2 PUSH0 PUSH1 0x1 ADD DUP2 SWAP1 SSTORE POP DUP1 PUSH0 PUSH1 0x2 ADD PUSH0 PUSH2 0x100 EXP DUP2 SLOAD DUP2 PUSH1 0xFF MUL NOT AND SWAP1 DUP4 ISZERO ISZERO MUL OR SWAP1 SSTORE POP POP POP POP JUMP JUMPDEST PUSH1 0x40 MLOAD DUP1 PUSH1 0x60 ADD PUSH1 0x40 MSTORE DUP1 PUSH1 0x60 DUP2 MSTORE PUSH1 0x20 ADD PUSH0 DUP2 MSTORE PUSH1 0x20 ADD PUSH0 ISZERO ISZERO DUP2 MSTORE POP SWAP1 JUMP JUMPDEST PUSH0 DUP2 MLOAD SWAP1 POP SWAP2 SWAP1 POP JUMP JUMPDEST PUSH0 DUP3 DUP3 MSTORE PUSH1 0x20 DUP3 ADD SWAP1 POP SWAP3 SWAP2 POP POP JUMP JUMPDEST DUP3 DUP2 DUP4 MCOPY PUSH0 DUP4 DUP4 ADD MSTORE POP POP POP JUMP JUMPDEST PUSH0 PUSH1 0x1F NOT PUSH1 0x1F DUP4 ADD AND SWAP1 POP SWAP2 SWAP1 POP JUMP JUMPDEST PUSH0 PUSH2 0x2AE DUP3 PUSH2 0x26C JUMP JUMPDEST PUSH2 0x2B8 DUP2 DUP6 PUSH2 0x276 JUMP JUMPDEST SWAP4 POP PUSH2 0x2C8 DUP2 DUP6 PUSH1 0x20 DUP7 ADD PUSH2 0x286 JUMP JUMPDEST PUSH2 0x2D1 DUP2 PUSH2 0x294 JUMP JUMPDEST DUP5 ADD SWAP2 POP POP SWAP3 SWAP2 POP POP JUMP JUMPDEST PUSH0 DUP2 SWAP1 POP SWAP2 SWAP1 POP JUMP JUMPDEST PUSH2 0x2EE DUP2 PUSH2 0x2DC JUMP JUMPDEST DUP3 MSTORE POP POP JUMP JUMPDEST PUSH0 DUP2 ISZERO ISZERO SWAP1 POP SWAP2 SWAP1 POP JUMP JUMPDEST PUSH2 0x308 DUP2 PUSH2 0x2F4 JUMP JUMPDEST DUP3 MSTORE POP POP JUMP JUMPDEST PUSH0 PUSH1 0x60 DUP3 ADD SWAP1 POP DUP2 DUP2 SUB PUSH0 DUP4 ADD MSTORE PUSH2 0x326 DUP2 DUP7 PUSH2 0x2A4 JUMP JUMPDEST SWAP1 POP PUSH2 0x335 PUSH1 0x20 DUP4 ADD DUP6 PUSH2 0x2E5 JUMP JUMPDEST PUSH2 0x342 PUSH1 0x40 DUP4 ADD DUP5 PUSH2 0x2FF JUMP JUMPDEST SWAP5 SWAP4 POP POP POP POP JUMP JUMPDEST PUSH0 DUP3 DUP3 MSTORE PUSH1 0x20 DUP3 ADD SWAP1 POP SWAP3 SWAP2 POP POP JUMP JUMPDEST PUSH0 PUSH2 0x364 DUP3 PUSH2 0x26C JUMP JUMPDEST PUSH2 0x36E DUP2 DUP6 PUSH2 0x34A JUMP JUMPDEST SWAP4 POP PUSH2 0x37E DUP2 DUP6 PUSH1 0x20 DUP7 ADD PUSH2 0x286 JUMP JUMPDEST PUSH2 0x387 DUP2 PUSH2 0x294 JUMP JUMPDEST DUP5 ADD SWAP2 POP POP SWAP3 SWAP2 POP POP JUMP JUMPDEST PUSH2 0x39B DUP2 PUSH2 0x2DC JUMP JUMPDEST DUP3 MSTORE POP POP JUMP JUMPDEST PUSH2 0x3AA DUP2 PUSH2 0x2F4 JUMP JUMPDEST DUP3 MSTORE POP POP JUMP JUMPDEST PUSH0 PUSH1 0x60 DUP4 ADD PUSH0 DUP4 ADD MLOAD DUP5 DUP3 SUB PUSH0 DUP7 ADD MSTORE PUSH2 0x3CA DUP3 DUP3 PUSH2 0x35A JUMP JUMPDEST SWAP2 POP POP PUSH1 0x20 DUP4 ADD MLOAD PUSH2 0x3DF PUSH1 0x20 DUP7 ADD DUP3 PUSH2 0x392 JUMP JUMPDEST POP PUSH1 0x40 DUP4 ADD MLOAD PUSH2 0x3F2 PUSH1 0x40 DUP7 ADD DUP3 PUSH2 0x3A1 JUMP JUMPDEST POP DUP1 SWAP2 POP POP SWAP3 SWAP2 POP POP JUMP JUMPDEST PUSH0 PUSH1 0x20 DUP3 ADD SWAP1 POP DUP2 DUP2 SUB PUSH0 DUP4 ADD MSTORE PUSH2 0x415 DUP2 DUP5 PUSH2 0x3B0 JUMP JUMPDEST SWAP1 POP SWAP3 SWAP2 POP POP JUMP JUMPDEST PUSH0 PUSH1 0x40 MLOAD SWAP1 POP SWAP1 JUMP JUMPDEST PUSH0 DUP1 REVERT JUMPDEST PUSH0 DUP1 REVERT JUMPDEST PUSH0 DUP1 REVERT JUMPDEST PUSH0 DUP1 REVERT JUMPDEST PUSH32 0x4E487B7100000000000000000000000000000000000000000000000000000000 PUSH0 MSTORE PUSH1 0x41 PUSH1 0x4 MSTORE PUSH1 0x24 PUSH0 REVERT JUMPDEST PUSH2 0x46C DUP3 PUSH2 0x294 JUMP JUMPDEST DUP2 ADD DUP2 DUP2 LT PUSH8 0xFFFFFFFFFFFFFFFF DUP3 GT OR ISZERO PUSH2 0x48B JUMPI PUSH2 0x48A PUSH2 0x436 JUMP JUMPDEST JUMPDEST DUP1 PUSH1 0x40 MSTORE POP POP POP JUMP JUMPDEST PUSH0 PUSH2 0x49D PUSH2 0x41D JUMP JUMPDEST SWAP1 POP PUSH2 0x4A9 DUP3 DUP3 PUSH2 0x463 JUMP JUMPDEST SWAP2 SWAP1 POP JUMP JUMPDEST PUSH0 PUSH8 0xFFFFFFFFFFFFFFFF DUP3 GT ISZERO PUSH2 0x4C8 JUMPI PUSH2 0x4C7 PUSH2 0x436 JUMP JUMPDEST JUMPDEST PUSH2 0x4D1 DUP3 PUSH2 0x294 JUMP JUMPDEST SWAP1 POP PUSH1 0x20 DUP2 ADD SWAP1 POP SWAP2 SWAP1 POP JUMP JUMPDEST DUP3 DUP2 DUP4 CALLDATACOPY PUSH0 DUP4 DUP4 ADD MSTORE POP POP POP JUMP JUMPDEST PUSH0 PUSH2 0x4FE PUSH2 0x4F9 DUP5 PUSH2 0x4AE JUMP JUMPDEST PUSH2 0x494 JUMP JUMPDEST SWAP1 POP DUP3 DUP2 MSTORE PUSH1 0x20 DUP2 ADD DUP5 DUP5 DUP5 ADD GT ISZERO PUSH2 0x51A JUMPI PUSH2 0x519 PUSH2 0x432 JUMP JUMPDEST JUMPDEST PUSH2 0x525 DUP5 DUP3 DUP6 PUSH2 0x4DE JUMP JUMPDEST POP SWAP4 SWAP3 POP POP POP JUMP JUMPDEST PUSH0 DUP3 PUSH1 0x1F DUP4 ADD SLT PUSH2 0x541 JUMPI PUSH2 0x540 PUSH2 0x42E JUMP JUMPDEST JUMPDEST DUP2 CALLDATALOAD PUSH2 0x551 DUP5 DUP3 PUSH1 0x20 DUP7 ADD PUSH2 0x4EC JUMP JUMPDEST SWAP2 POP POP SWAP3 SWAP2 POP POP JUMP JUMPDEST PUSH2 0x563 DUP2 PUSH2 0x2DC JUMP JUMPDEST DUP2 EQ PUSH2 0x56D JUMPI PUSH0 DUP1 REVERT JUMPDEST POP JUMP JUMPDEST PUSH0 DUP2 CALLDATALOAD SWAP1 POP PUSH2 0x57E DUP2 PUSH2 0x55A JUMP JUMPDEST SWAP3 SWAP2 POP POP JUMP JUMPDEST PUSH2 0x58D DUP2 PUSH2 0x2F4 JUMP JUMPDEST DUP2 EQ PUSH2 0x597 JUMPI PUSH0 DUP1 REVERT JUMPDEST POP JUMP JUMPDEST PUSH0 DUP2 CALLDATALOAD SWAP1 POP PUSH2 0x5A8 DUP2 PUSH2 0x584 JUMP JUMPDEST SWAP3 SWAP2 POP POP JUMP JUMPDEST PUSH0 DUP1 PUSH0 PUSH1 0x60 DUP5 DUP7 SUB SLT ISZERO PUSH2 0x5C5 JUMPI PUSH2 0x5C4 PUSH2 0x426 JUMP JUMPDEST JUMPDEST PUSH0 DUP5 ADD CALLDATALOAD PUSH8 0xFFFFFFFFFFFFFFFF DUP2 GT ISZERO PUSH2 0x5E2 JUMPI PUSH2 0x5E1 PUSH2 0x42A JUMP JUMPDEST JUMPDEST PUSH2 0x5EE DUP7 DUP3 DUP8 ADD PUSH2 0x52D JUMP JUMPDEST SWAP4 POP POP PUSH1 0x20 PUSH2 0x5FF DUP7 DUP3 DUP8 ADD PUSH2 0x570 JUMP JUMPDEST SWAP3 POP POP PUSH1 0x40 PUSH2 0x610 DUP7 DUP3 DUP8 ADD PUSH2 0x59A JUMP JUMPDEST SWAP2 POP POP SWAP3 POP SWAP3 POP SWAP3 JUMP JUMPDEST PUSH32 0x4E487B7100000000000000000000000000000000000000000000000000000000 PUSH0 MSTORE PUSH1 0x22 PUSH1 0x4 MSTORE PUSH1 0x24 PUSH0 REVERT JUMPDEST PUSH0 PUSH1 0x2 DUP3 DIV SWAP1 POP PUSH1 0x1 DUP3 AND DUP1 PUSH2 0x65E JUMPI PUSH1 0x7F DUP3 AND SWAP2 POP JUMPDEST PUSH1 0x20 DUP3 LT DUP2 SUB PUSH2 0x671 JUMPI PUSH2 0x670 PUSH2 0x61A JUMP JUMPDEST JUMPDEST POP SWAP2 SWAP1 POP JUMP JUMPDEST PUSH0 DUP2 SWAP1 POP DUP2 PUSH0 MSTORE PUSH1 0x20 PUSH0 KECCAK256 SWAP1 POP SWAP2 SWAP1 POP JUMP JUMPDEST PUSH0 PUSH1 0x20 PUSH1 0x1F DUP4 ADD DIV SWAP1 POP SWAP2 SWAP1 POP JUMP JUMPDEST PUSH0 DUP3 DUP3 SHL SWAP1 POP SWAP3 SWAP2 POP POP JUMP JUMPDEST PUSH0 PUSH1 0x8 DUP4 MUL PUSH2 0x6D3 PUSH32 0xFFFFFFFFFFFFFFFFFFFFFFFFFFFFFFFFFFFFFFFFFFFFFFFFFFFFFFFFFFFFFFFF DUP3 PUSH2 0x698 JUMP JUMPDEST PUSH2 0x6DD DUP7 DUP4 PUSH2 0x698 JUMP JUMPDEST SWAP6 POP DUP1 NOT DUP5 AND SWAP4 POP DUP1 DUP7 AND DUP5 OR SWAP3 POP POP POP SWAP4 SWAP3 POP POP POP JUMP JUMPDEST PUSH0 DUP2 SWAP1 POP SWAP2 SWAP1 POP JUMP JUMPDEST PUSH0 PUSH2 0x718 PUSH2 0x713 PUSH2 0x70E DUP5 PUSH2 0x2DC JUMP JUMPDEST PUSH2 0x6F5 JUMP JUMPDEST PUSH2 0x2DC JUMP JUMPDEST SWAP1 POP SWAP2 SWAP1 POP JUMP JUMPDEST PUSH0 DUP2 SWAP1 POP SWAP2 SWAP1 POP JUMP JUMPDEST PUSH2 0x731 DUP4 PUSH2 0x6FE JUMP JUMPDEST PUSH2 0x745 PUSH2 0x73D DUP3 PUSH2 0x71F JUMP JUMPDEST DUP5 DUP5 SLOAD PUSH2 0x6A4 JUMP JUMPDEST DUP3 SSTORE POP POP POP POP JUMP JUMPDEST PUSH0 SWAP1 JUMP JUMPDEST PUSH2 0x759 PUSH2 0x74D JUMP JUMPDEST PUSH2 0x764 DUP2 DUP5 DUP5 PUSH2 0x728 JUMP JUMPDEST POP POP POP JUMP JUMPDEST JUMPDEST DUP2 DUP2 LT ISZERO PUSH2 0x787 JUMPI PUSH2 0x77C PUSH0 DUP3 PUSH2 0x751 JUMP JUMPDEST PUSH1 0x1 DUP2 ADD SWAP1 POP PUSH2 0x76A JUMP JUMPDEST POP POP JUMP JUMPDEST PUSH1 0x1F DUP3 GT ISZERO PUSH2 0x7CC JUMPI PUSH2 0x79D DUP2 PUSH2 0x677 JUMP JUMPDEST PUSH2 0x7A6 DUP5 PUSH2 0x689 JUMP JUMPDEST DUP2 ADD PUSH1 0x20 DUP6 LT ISZERO PUSH2 0x7B5 JUMPI DUP2 SWAP1 POP JUMPDEST PUSH2 0x7C9 PUSH2 0x7C1 DUP6 PUSH2 0x689 JUMP JUMPDEST DUP4 ADD DUP3 PUSH2 0x769 JUMP JUMPDEST POP POP JUMPDEST POP POP POP JUMP JUMPDEST PUSH0 DUP3 DUP3 SHR SWAP1 POP SWAP3 SWAP2 POP POP JUMP JUMPDEST PUSH0 PUSH2 0x7EC PUSH0 NOT DUP5 PUSH1 0x8 MUL PUSH2 0x7D1 JUMP JUMPDEST NOT DUP1 DUP4 AND SWAP2 POP POP SWAP3 SWAP2 POP POP JUMP JUMPDEST PUSH0 PUSH2 0x804 DUP4 DUP4 PUSH2 0x7DD JUMP JUMPDEST SWAP2 POP DUP3 PUSH1 0x2 MUL DUP3 OR SWAP1 POP SWAP3 SWAP2 POP POP JUMP JUMPDEST PUSH2 0x81D DUP3 PUSH2 0x26C JUMP JUMPDEST PUSH8 0xFFFFFFFFFFFFFFFF DUP2 GT ISZERO PUSH2 0x836 JUMPI PUSH2 0x835 PUSH2 0x436 JUMP JUMPDEST JUMPDEST PUSH2 0x840 DUP3 SLOAD PUSH2 0x647 JUMP JUMPDEST PUSH2 0x84B DUP3 DUP3 DUP6 PUSH2 0x78B JUMP JUMPDEST PUSH0 PUSH1 0x20 SWAP1 POP PUSH1 0x1F DUP4 GT PUSH1 0x1 DUP2 EQ PUSH2 0x87C JUMPI PUSH0 DUP5 ISZERO PUSH2 0x86A JUMPI DUP3 DUP8 ADD MLOAD SWAP1 POP JUMPDEST PUSH2 0x874 DUP6 DUP3 PUSH2 0x7F9 JUMP JUMPDEST DUP7 SSTORE POP PUSH2 0x8DB JUMP JUMPDEST PUSH1 0x1F NOT DUP5 AND PUSH2 0x88A DUP7 PUSH2 0x677 JUMP JUMPDEST PUSH0 JUMPDEST DUP3 DUP2 LT ISZERO PUSH2 0x8B1 JUMPI DUP5 DUP10 ADD MLOAD DUP3 SSTORE PUSH1 0x1 DUP3 ADD SWAP2 POP PUSH1 0x20 DUP6 ADD SWAP5 POP PUSH1 0x20 DUP2 ADD SWAP1 POP PUSH2 0x88C JUMP JUMPDEST DUP7 DUP4 LT ISZERO PUSH2 0x8CE JUMPI DUP5 DUP10 ADD MLOAD PUSH2 0x8CA PUSH1 0x1F DUP10 AND DUP3 PUSH2 0x7DD JUMP JUMPDEST DUP4 SSTORE POP JUMPDEST PUSH1 0x1 PUSH1 0x2 DUP9 MUL ADD DUP9 SSTORE POP POP POP JUMPDEST POP POP POP POP POP POP JUMP INVALID LOG2 PUSH5 0x6970667358 0x22 SLT KECCAK256 DUP16 SWAP9 0xBD 0xB1 0xFC PUSH28 0x26B217B5D17AD16B3EA9E8F5A79EF8032FD606D5A74B90F52C66473 PUSH16 0x6C634300081A00330000000000000000 "
				},
				"gasEstimates": {
					"creation": {
						"codeDepositCost": "465800",
						"executionCost": "497",
						"totalCost": "466297"
					},
					"external": {
						"getter()": "infinite",
						"insertstring(string,uint256,bool)": "infinite",
						"s1()": "infinite"
					}
				},
				"methodIdentifiers": {
					"getter()": "993a04b7",
					"insertstring(string,uint256,bool)": "9a681971",
					"s1()": "6cc014de"
				}
			},
			"storageLayout": {
				"storage": [
					{
						"astId": 11,
						"contract": "solidity_programs/18.sol:demo",
						"label": "s1",
						"offset": 0,
						"slot": "0",
						"type": "t_struct(student)8_storage"
					}
				],
				"types": {
					"t_bool": {
						"encoding": "inplace",
						"label": "bool",
						"numberOfBytes": "1"
					},
					"t_string_storage": {
						"encoding": "bytes",
						"label": "string",
						"numberOfBytes": "32"
					},
					"t_struct(student)8_storage": {
						"encoding": "inplace",
						"label": "struct demo.student",
						"members": [
							{
								"astId": 3,
								"contract": "solidity_programs/18.sol:demo",
								"label": "name",
								"offset": 0,
								"slot": "0",
								"type": "t_string_storage"
							},
							{
								"astId": 5,
								"contract": "solidity_programs/18.sol:demo",
								"label": "roll",
								"offset": 0,
								"slot": "1",
								"type": "t_uint256"
							},
							{
								"astId": 7,
								"contract": "solidity_programs/18.sol:demo",
								"label": "pass",
								"offset": 0,
								"slot": "2",
								"type": "t_bool"
							}
						],
						"numberOfBytes": "96"
					},
					"t_uint256": {
						"encoding": "inplace",
						"label": "uint256",
						"numberOfBytes": "32"
					}
				}
			},
			"userdoc": {
				"kind": "user",
				"methods": {},
				"version": 1
			}
		}
	}
}