{
	"solidity_programs/17.sol": {
		"demo": {
			"abi": [
				{
					"inputs": [
						{
							"internalType": "uint256",
							"name": "",
							"type": "uint256"
						}
					],
					"name": "arr",
					"outputs": [
						{
							"internalType": "uint256",
							"name": "",
							"type": "uint256"
						}
					],
					"stateMutability": "view",
					"type": "function"
				},
				{
					"inputs": [],
					"name": "fmemory",
					"outputs": [
						{
							"internalType": "uint256[3]",
							"name": "",
							"type": "uint256[3]"
						}
					],
					"stateMutability": "pure",
					"type": "function"
				},
				{
					"inputs": [],
					"name": "fstorage",
					"outputs": [],
					"stateMutability": "nonpayable",
					"type": "function"
				}
			],
			"devdoc": {
				"kind": "dev",
				"methods": {},
				"version": 1
			},
			"evm": {
				"assembly": "    /* \"solidity_programs/17.sol\":68:400  contract demo {... */\n  mstore(0x40, 0x80)\n    /* \"solidity_programs/17.sol\":89:122  uint[3] public arr = [10, 20, 30] */\n  mload(0x40)\n  dup1\n  0x60\n  add\n  0x40\n  mstore\n  dup1\n    /* \"solidity_programs/17.sol\":111:113  10 */\n  0x0a\n    /* \"solidity_programs/17.sol\":89:122  uint[3] public arr = [10, 20, 30] */\n  0xff\n  and\n  dup2\n  mstore\n  0x20\n  add\n    /* \"solidity_programs/17.sol\":115:117  20 */\n  0x14\n    /* \"solidity_programs/17.sol\":89:122  uint[3] public arr = [10, 20, 30] */\n  0xff\n  and\n  dup2\n  mstore\n  0x20\n  add\n    /* \"solidity_programs/17.sol\":119:121  30 */\n  0x1e\n    /* \"solidity_programs/17.sol\":89:122  uint[3] public arr = [10, 20, 30] */\n  0xff\n  and\n  dup2\n  mstore\n  pop\n  0x00\n  swap1\n  0x03\n  tag_1\n  swap3\n  swap2\n  swap1\n  tag_2\n  jump\t// in\ntag_1:\n  pop\n    /* \"solidity_programs/17.sol\":68:400  contract demo {... */\n  callvalue\n  dup1\n  iszero\n  tag_3\n  jumpi\n  0x00\n  dup1\n  revert\ntag_3:\n  pop\n  jump(tag_4)\ntag_2:\n  dup3\n  0x03\n  dup2\n  add\n  swap3\n  dup3\n  iszero\n  tag_5\n  jumpi\n  swap2\n  0x20\n  mul\n  dup3\n  add\ntag_6:\n  dup3\n  dup2\n  gt\n  iszero\n  tag_7\n  jumpi\n  dup3\n  mload\n  dup3\n  swap1\n  0xff\n  and\n  swap1\n  sstore\n  swap2\n  0x20\n  add\n  swap2\n  swap1\n  0x01\n  add\n  swap1\n  jump(tag_6)\ntag_7:\ntag_5:\n  pop\n  swap1\n  pop\n  tag_8\n  swap2\n  swap1\n  tag_9\n  jump\t// in\ntag_8:\n  pop\n  swap1\n  jump\t// out\ntag_9:\ntag_10:\n  dup1\n  dup3\n  gt\n  iszero\n  tag_11\n  jumpi\n  0x00\n  dup2\n  0x00\n  swap1\n  sstore\n  pop\n  0x01\n  add\n  jump(tag_10)\ntag_11:\n  pop\n  swap1\n  jump\t// out\ntag_4:\n  dataSize(sub_0)\n  dup1\n  dataOffset(sub_0)\n  0x00\n  codecopy\n  0x00\n  return\nstop\n\nsub_0: assembly {\n        /* \"solidity_programs/17.sol\":68:400  contract demo {... */\n      mstore(0x40, 0x80)\n      callvalue\n      dup1\n      iszero\n      tag_1\n      jumpi\n      0x00\n      dup1\n      revert\n    tag_1:\n      pop\n      jumpi(tag_2, lt(calldatasize, 0x04))\n      shr(0xe0, calldataload(0x00))\n      dup1\n      0x5e3be076\n      eq\n      tag_3\n      jumpi\n      dup1\n      0x71e5ee5f\n      eq\n      tag_4\n      jumpi\n      dup1\n      0x9f87bd86\n      eq\n      tag_5\n      jumpi\n    tag_2:\n      0x00\n      dup1\n      revert\n        /* \"solidity_programs/17.sol\":289:397  function fstorage() public {... */\n    tag_3:\n      tag_6\n      tag_7\n      jump\t// in\n    tag_6:\n      stop\n        /* \"solidity_programs/17.sol\":89:122  uint[3] public arr = [10, 20, 30] */\n    tag_4:\n      tag_8\n      0x04\n      dup1\n      calldatasize\n      sub\n      dup2\n      add\n      swap1\n      tag_9\n      swap2\n      swap1\n      tag_10\n      jump\t// in\n    tag_9:\n      tag_11\n      jump\t// in\n    tag_8:\n      mload(0x40)\n      tag_12\n      swap2\n      swap1\n      tag_13\n      jump\t// in\n    tag_12:\n      mload(0x40)\n      dup1\n      swap2\n      sub\n      swap1\n      return\n        /* \"solidity_programs/17.sol\":129:283  function fmemory() public pure returns (uint[3] memory) {... */\n    tag_5:\n      tag_14\n      tag_15\n      jump\t// in\n    tag_14:\n      mload(0x40)\n      tag_16\n      swap2\n      swap1\n      tag_17\n      jump\t// in\n    tag_16:\n      mload(0x40)\n      dup1\n      swap2\n      sub\n      swap1\n      return\n        /* \"solidity_programs/17.sol\":289:397  function fstorage() public {... */\n    tag_7:\n        /* \"solidity_programs/17.sol\":327:353  uint[3] storage storageArr */\n      0x00\n        /* \"solidity_programs/17.sol\":386:389  100 */\n      0x64\n        /* \"solidity_programs/17.sol\":370:380  storageArr */\n      dup2\n        /* \"solidity_programs/17.sol\":381:382  0 */\n      0x00\n        /* \"solidity_programs/17.sol\":370:383  storageArr[0] */\n      0x03\n      dup2\n      lt\n      tag_19\n      jumpi\n      tag_20\n      tag_21\n      jump\t// in\n    tag_20:\n    tag_19:\n      add\n        /* \"solidity_programs/17.sol\":370:389  storageArr[0] = 100 */\n      dup2\n      swap1\n      sstore\n      pop\n        /* \"solidity_programs/17.sol\":316:397  {... */\n      pop\n        /* \"solidity_programs/17.sol\":289:397  function fstorage() public {... */\n      jump\t// out\n        /* \"solidity_programs/17.sol\":89:122  uint[3] public arr = [10, 20, 30] */\n    tag_11:\n      0x00\n      dup2\n      0x03\n      dup2\n      lt\n      tag_23\n      jumpi\n      0x00\n      dup1\n      revert\n    tag_23:\n      add\n      0x00\n      swap2\n      pop\n      swap1\n      pop\n      sload\n      dup2\n      jump\t// out\n        /* \"solidity_programs/17.sol\":129:283  function fmemory() public pure returns (uint[3] memory) {... */\n    tag_15:\n        /* \"solidity_programs/17.sol\":169:183  uint[3] memory */\n      tag_25\n      tag_26\n      jump\t// in\n    tag_25:\n        /* \"solidity_programs/17.sol\":196:218  uint[3] memory tempArr */\n      0x00\n        /* \"solidity_programs/17.sol\":196:250  uint[3] memory tempArr = [uint(100), uint(0), uint(0)] */\n      mload(0x40)\n      dup1\n      0x60\n      add\n      0x40\n      mstore\n      dup1\n        /* \"solidity_programs/17.sol\":227:230  100 */\n      0x64\n        /* \"solidity_programs/17.sol\":196:250  uint[3] memory tempArr = [uint(100), uint(0), uint(0)] */\n      dup2\n      mstore\n      0x20\n      add\n        /* \"solidity_programs/17.sol\":238:239  0 */\n      0x00\n        /* \"solidity_programs/17.sol\":196:250  uint[3] memory tempArr = [uint(100), uint(0), uint(0)] */\n      dup2\n      mstore\n      0x20\n      add\n        /* \"solidity_programs/17.sol\":247:248  0 */\n      0x00\n        /* \"solidity_programs/17.sol\":196:250  uint[3] memory tempArr = [uint(100), uint(0), uint(0)] */\n      dup2\n      mstore\n      pop\n      swap1\n      pop\n        /* \"solidity_programs/17.sol\":268:275  tempArr */\n      dup1\n        /* \"solidity_programs/17.sol\":261:275  return tempArr */\n      swap2\n      pop\n      pop\n        /* \"solidity_programs/17.sol\":129:283  function fmemory() public pure returns (uint[3] memory) {... */\n      swap1\n      jump\t// out\n    tag_26:\n      mload(0x40)\n      dup1\n      0x60\n      add\n      0x40\n      mstore\n      dup1\n      0x03\n      swap1\n      0x20\n      dup3\n      mul\n      dup1\n      calldatasize\n      dup4\n      calldatacopy\n      dup1\n      dup3\n      add\n      swap2\n      pop\n      pop\n      swap1\n      pop\n      pop\n      swap1\n      jump\t// out\n        /* \"#utility.yul\":88:205   */\n    tag_29:\n        /* \"#utility.yul\":197:198   */\n      0x00\n        /* \"#utility.yul\":194:195   */\n      dup1\n        /* \"#utility.yul\":187:199   */\n      revert\n        /* \"#utility.yul\":334:411   */\n    tag_31:\n        /* \"#utility.yul\":371:378   */\n      0x00\n        /* \"#utility.yul\":400:405   */\n      dup2\n        /* \"#utility.yul\":389:405   */\n      swap1\n      pop\n        /* \"#utility.yul\":334:411   */\n      swap2\n      swap1\n      pop\n      jump\t// out\n        /* \"#utility.yul\":417:539   */\n    tag_32:\n        /* \"#utility.yul\":490:514   */\n      tag_48\n        /* \"#utility.yul\":508:513   */\n      dup2\n        /* \"#utility.yul\":490:514   */\n      tag_31\n      jump\t// in\n    tag_48:\n        /* \"#utility.yul\":483:488   */\n      dup2\n        /* \"#utility.yul\":480:515   */\n      eq\n        /* \"#utility.yul\":470:533   */\n      tag_49\n      jumpi\n        /* \"#utility.yul\":529:530   */\n      0x00\n        /* \"#utility.yul\":526:527   */\n      dup1\n        /* \"#utility.yul\":519:531   */\n      revert\n        /* \"#utility.yul\":470:533   */\n    tag_49:\n        /* \"#utility.yul\":417:539   */\n      pop\n      jump\t// out\n        /* \"#utility.yul\":545:684   */\n    tag_33:\n        /* \"#utility.yul\":591:596   */\n      0x00\n        /* \"#utility.yul\":629:635   */\n      dup2\n        /* \"#utility.yul\":616:636   */\n      calldataload\n        /* \"#utility.yul\":607:636   */\n      swap1\n      pop\n        /* \"#utility.yul\":645:678   */\n      tag_51\n        /* \"#utility.yul\":672:677   */\n      dup2\n        /* \"#utility.yul\":645:678   */\n      tag_32\n      jump\t// in\n    tag_51:\n        /* \"#utility.yul\":545:684   */\n      swap3\n      swap2\n      pop\n      pop\n      jump\t// out\n        /* \"#utility.yul\":690:1019   */\n    tag_10:\n        /* \"#utility.yul\":749:755   */\n      0x00\n        /* \"#utility.yul\":798:800   */\n      0x20\n        /* \"#utility.yul\":786:795   */\n      dup3\n        /* \"#utility.yul\":777:784   */\n      dup5\n        /* \"#utility.yul\":773:796   */\n      sub\n        /* \"#utility.yul\":769:801   */\n      slt\n        /* \"#utility.yul\":766:885   */\n      iszero\n      tag_53\n      jumpi\n        /* \"#utility.yul\":804:883   */\n      tag_54\n      tag_29\n      jump\t// in\n    tag_54:\n        /* \"#utility.yul\":766:885   */\n    tag_53:\n        /* \"#utility.yul\":924:925   */\n      0x00\n        /* \"#utility.yul\":949:1002   */\n      tag_55\n        /* \"#utility.yul\":994:1001   */\n      dup5\n        /* \"#utility.yul\":985:991   */\n      dup3\n        /* \"#utility.yul\":974:983   */\n      dup6\n        /* \"#utility.yul\":970:992   */\n      add\n        /* \"#utility.yul\":949:1002   */\n      tag_33\n      jump\t// in\n    tag_55:\n        /* \"#utility.yul\":939:1002   */\n      swap2\n      pop\n        /* \"#utility.yul\":895:1012   */\n      pop\n        /* \"#utility.yul\":690:1019   */\n      swap3\n      swap2\n      pop\n      pop\n      jump\t// out\n        /* \"#utility.yul\":1025:1143   */\n    tag_34:\n        /* \"#utility.yul\":1112:1136   */\n      tag_57\n        /* \"#utility.yul\":1130:1135   */\n      dup2\n        /* \"#utility.yul\":1112:1136   */\n      tag_31\n      jump\t// in\n    tag_57:\n        /* \"#utility.yul\":1107:1110   */\n      dup3\n        /* \"#utility.yul\":1100:1137   */\n      mstore\n        /* \"#utility.yul\":1025:1143   */\n      pop\n      pop\n      jump\t// out\n        /* \"#utility.yul\":1149:1371   */\n    tag_13:\n        /* \"#utility.yul\":1242:1246   */\n      0x00\n        /* \"#utility.yul\":1280:1282   */\n      0x20\n        /* \"#utility.yul\":1269:1278   */\n      dup3\n        /* \"#utility.yul\":1265:1283   */\n      add\n        /* \"#utility.yul\":1257:1283   */\n      swap1\n      pop\n        /* \"#utility.yul\":1293:1364   */\n      tag_59\n        /* \"#utility.yul\":1361:1362   */\n      0x00\n        /* \"#utility.yul\":1350:1359   */\n      dup4\n        /* \"#utility.yul\":1346:1363   */\n      add\n        /* \"#utility.yul\":1337:1343   */\n      dup5\n        /* \"#utility.yul\":1293:1364   */\n      tag_34\n      jump\t// in\n    tag_59:\n        /* \"#utility.yul\":1149:1371   */\n      swap3\n      swap2\n      pop\n      pop\n      jump\t// out\n        /* \"#utility.yul\":1377:1481   */\n    tag_35:\n        /* \"#utility.yul\":1442:1448   */\n      0x00\n        /* \"#utility.yul\":1470:1474   */\n      0x03\n        /* \"#utility.yul\":1460:1474   */\n      swap1\n      pop\n        /* \"#utility.yul\":1377:1481   */\n      swap2\n      swap1\n      pop\n      jump\t// out\n        /* \"#utility.yul\":1487:1630   */\n    tag_36:\n        /* \"#utility.yul\":1584:1595   */\n      0x00\n        /* \"#utility.yul\":1621:1624   */\n      dup2\n        /* \"#utility.yul\":1606:1624   */\n      swap1\n      pop\n        /* \"#utility.yul\":1487:1630   */\n      swap3\n      swap2\n      pop\n      pop\n      jump\t// out\n        /* \"#utility.yul\":1636:1734   */\n    tag_37:\n        /* \"#utility.yul\":1701:1705   */\n      0x00\n        /* \"#utility.yul\":1724:1727   */\n      dup2\n        /* \"#utility.yul\":1716:1727   */\n      swap1\n      pop\n        /* \"#utility.yul\":1636:1734   */\n      swap2\n      swap1\n      pop\n      jump\t// out\n        /* \"#utility.yul\":1740:1848   */\n    tag_38:\n        /* \"#utility.yul\":1817:1841   */\n      tag_64\n        /* \"#utility.yul\":1835:1840   */\n      dup2\n        /* \"#utility.yul\":1817:1841   */\n      tag_31\n      jump\t// in\n    tag_64:\n        /* \"#utility.yul\":1812:1815   */\n      dup3\n        /* \"#utility.yul\":1805:1842   */\n      mstore\n        /* \"#utility.yul\":1740:1848   */\n      pop\n      pop\n      jump\t// out\n        /* \"#utility.yul\":1854:2033   */\n    tag_39:\n        /* \"#utility.yul\":1923:1933   */\n      0x00\n        /* \"#utility.yul\":1944:1990   */\n      tag_66\n        /* \"#utility.yul\":1986:1989   */\n      dup4\n        /* \"#utility.yul\":1978:1984   */\n      dup4\n        /* \"#utility.yul\":1944:1990   */\n      tag_38\n      jump\t// in\n    tag_66:\n        /* \"#utility.yul\":2022:2026   */\n      0x20\n        /* \"#utility.yul\":2017:2020   */\n      dup4\n        /* \"#utility.yul\":2013:2027   */\n      add\n        /* \"#utility.yul\":1999:2027   */\n      swap1\n      pop\n        /* \"#utility.yul\":1854:2033   */\n      swap3\n      swap2\n      pop\n      pop\n      jump\t// out\n        /* \"#utility.yul\":2039:2150   */\n    tag_40:\n        /* \"#utility.yul\":2107:2111   */\n      0x00\n        /* \"#utility.yul\":2139:2143   */\n      0x20\n        /* \"#utility.yul\":2134:2137   */\n      dup3\n        /* \"#utility.yul\":2130:2144   */\n      add\n        /* \"#utility.yul\":2122:2144   */\n      swap1\n      pop\n        /* \"#utility.yul\":2039:2150   */\n      swap2\n      swap1\n      pop\n      jump\t// out\n        /* \"#utility.yul\":2188:2882   */\n    tag_41:\n        /* \"#utility.yul\":2324:2376   */\n      tag_69\n        /* \"#utility.yul\":2370:2375   */\n      dup2\n        /* \"#utility.yul\":2324:2376   */\n      tag_35\n      jump\t// in\n    tag_69:\n        /* \"#utility.yul\":2392:2476   */\n      tag_70\n        /* \"#utility.yul\":2469:2475   */\n      dup2\n        /* \"#utility.yul\":2464:2467   */\n      dup5\n        /* \"#utility.yul\":2392:2476   */\n      tag_36\n      jump\t// in\n    tag_70:\n        /* \"#utility.yul\":2385:2476   */\n      swap3\n      pop\n        /* \"#utility.yul\":2500:2554   */\n      tag_71\n        /* \"#utility.yul\":2548:2553   */\n      dup3\n        /* \"#utility.yul\":2500:2554   */\n      tag_37\n      jump\t// in\n    tag_71:\n        /* \"#utility.yul\":2577:2584   */\n      dup1\n        /* \"#utility.yul\":2608:2609   */\n      0x00\n        /* \"#utility.yul\":2593:2875   */\n    tag_72:\n        /* \"#utility.yul\":2618:2624   */\n      dup4\n        /* \"#utility.yul\":2615:2616   */\n      dup2\n        /* \"#utility.yul\":2612:2625   */\n      lt\n        /* \"#utility.yul\":2593:2875   */\n      iszero\n      tag_74\n      jumpi\n        /* \"#utility.yul\":2694:2700   */\n      dup2\n        /* \"#utility.yul\":2688:2701   */\n      mload\n        /* \"#utility.yul\":2721:2784   */\n      tag_75\n        /* \"#utility.yul\":2780:2783   */\n      dup8\n        /* \"#utility.yul\":2765:2778   */\n      dup3\n        /* \"#utility.yul\":2721:2784   */\n      tag_39\n      jump\t// in\n    tag_75:\n        /* \"#utility.yul\":2714:2784   */\n      swap7\n      pop\n        /* \"#utility.yul\":2807:2865   */\n      tag_76\n        /* \"#utility.yul\":2858:2864   */\n      dup4\n        /* \"#utility.yul\":2807:2865   */\n      tag_40\n      jump\t// in\n    tag_76:\n        /* \"#utility.yul\":2797:2865   */\n      swap3\n      pop\n        /* \"#utility.yul\":2653:2875   */\n      pop\n        /* \"#utility.yul\":2640:2641   */\n      0x01\n        /* \"#utility.yul\":2637:2638   */\n      dup2\n        /* \"#utility.yul\":2633:2642   */\n      add\n        /* \"#utility.yul\":2628:2642   */\n      swap1\n      pop\n        /* \"#utility.yul\":2593:2875   */\n      jump(tag_72)\n    tag_74:\n        /* \"#utility.yul\":2597:2611   */\n      pop\n        /* \"#utility.yul\":2300:2882   */\n      pop\n      pop\n      pop\n        /* \"#utility.yul\":2188:2882   */\n      pop\n      pop\n      jump\t// out\n        /* \"#utility.yul\":2888:3202   */\n    tag_17:\n        /* \"#utility.yul\":3027:3031   */\n      0x00\n        /* \"#utility.yul\":3065:3067   */\n      0x60\n        /* \"#utility.yul\":3054:3063   */\n      dup3\n        /* \"#utility.yul\":3050:3068   */\n      add\n        /* \"#utility.yul\":3042:3068   */\n      swap1\n      pop\n        /* \"#utility.yul\":3078:3195   */\n      tag_78\n        /* \"#utility.yul\":3192:3193   */\n      0x00\n        /* \"#utility.yul\":3181:3190   */\n      dup4\n        /* \"#utility.yul\":3177:3194   */\n      add\n        /* \"#utility.yul\":3168:3174   */\n      dup5\n        /* \"#utility.yul\":3078:3195   */\n      tag_41\n      jump\t// in\n    tag_78:\n        /* \"#utility.yul\":2888:3202   */\n      swap3\n      swap2\n      pop\n      pop\n      jump\t// out\n        /* \"#utility.yul\":3208:3388   */\n    tag_21:\n        /* \"#utility.yul\":3256:3333   */\n      0x4e487b7100000000000000000000000000000000000000000000000000000000\n        /* \"#utility.yul\":3253:3254   */\n      0x00\n        /* \"#utility.yul\":3246:3334   */\n      mstore\n        /* \"#utility.yul\":3353:3357   */\n      0x32\n        /* \"#utility.yul\":3350:3351   */\n      0x04\n        /* \"#utility.yul\":3343:3358   */\n      mstore\n        /* \"#utility.yul\":3377:3381   */\n      0x24\n        /* \"#utility.yul\":3374:3375   */\n      0x00\n        /* \"#utility.yul\":3367:3382   */\n      revert\n\n    auxdata: 0xa264697066735822122090a87cd018db0ba5130f3f6ee7436c152e462c8b799934716096da3534f7e9c964736f6c634300081a0033\n}\n",
				"bytecode": {
					"linkReferences": {},
					"object": "60806040526040518060600160405280600a60ff168152602001601460ff168152602001601e60ff168152505f90600360389291906048565b503480156043575f80fd5b5060a1565b82600381019282156079579160200282015b828111156078578251829060ff16905591602001919060010190605a565b5b509050608491906088565b5090565b5b80821115609d575f815f9055506001016089565b5090565b6102cc806100ae5f395ff3fe608060405234801561000f575f80fd5b506004361061003f575f3560e01c80635e3be0761461004357806371e5ee5f1461004d5780639f87bd861461007d575b5f80fd5b61004b61009b565b005b61006760048036038101906100629190610158565b6100b9565b6040516100749190610192565b60405180910390f35b6100856100d1565b6040516100929190610250565b60405180910390f35b5f6064815f600381106100b1576100b0610269565b5b018190555050565b5f81600381106100c7575f80fd5b015f915090505481565b6100d96100ff565b5f6040518060600160405280606481526020015f81526020015f81525090508091505090565b6040518060600160405280600390602082028036833780820191505090505090565b5f80fd5b5f819050919050565b61013781610125565b8114610141575f80fd5b50565b5f813590506101528161012e565b92915050565b5f6020828403121561016d5761016c610121565b5b5f61017a84828501610144565b91505092915050565b61018c81610125565b82525050565b5f6020820190506101a55f830184610183565b92915050565b5f60039050919050565b5f81905092915050565b5f819050919050565b6101d181610125565b82525050565b5f6101e283836101c8565b60208301905092915050565b5f602082019050919050565b610203816101ab565b61020d81846101b5565b9250610218826101bf565b805f5b8381101561024857815161022f87826101d7565b965061023a836101ee565b92505060018101905061021b565b505050505050565b5f6060820190506102635f8301846101fa565b92915050565b7f4e487b71000000000000000000000000000000000000000000000000000000005f52603260045260245ffdfea264697066735822122090a87cd018db0ba5130f3f6ee7436c152e462c8b799934716096da3534f7e9c964736f6c634300081a0033",
					"opcodes": "PUSH1 0x80 PUSH1 0x40 MSTORE PUSH1 0x40 MLOAD DUP1 PUSH1 0x60 ADD PUSH1 0x40 MSTORE DUP1 PUSH1 0xA PUSH1 0xFF AND DUP2 MSTORE PUSH1 0x20 ADD PUSH1 0x14 PUSH1 0xFF AND DUP2 MSTORE PUSH1 0x20 ADD PUSH1 0x1E PUSH1 0xFF AND DUP2 MSTORE POP PUSH0 SWAP1 PUSH1 0x3 PUSH1 0x38 SWAP3 SWAP2 SWAP1 PUSH1 0x48 JUMP JUMPDEST POP CALLVALUE DUP1 ISZERO PUSH1 0x43 JUMPI PUSH0 DUP1 REVERT JUMPDEST POP PUSH1 0xA1 JUMP JUMPDEST DUP3 PUSH1 0x3 DUP2 ADD SWAP3 DUP3 ISZERO PUSH1 0x79 JUMPI SWAP2 PUSH1 0x20 MUL DUP3 ADD JUMPDEST DUP3 DUP2 GT ISZERO PUSH1 0x78 JUMPI DUP3 MLOAD DUP3 SWAP1 PUSH1 0xFF AND SWAP1 SSTORE SWAP2 PUSH1 0x20 ADD SWAP2 SWAP1 PUSH1 0x1 ADD SWAP1 PUSH1 0x5A JUMP JUMPDEST JUMPDEST POP SWAP1 POP PUSH1 0x84 SWAP2 SWAP1 PUSH1 0x88 JUMP JUMPDEST POP SWAP1 JUMP JUMPDEST JUMPDEST DUP1 DUP3 GT ISZERO PUSH1 0x9D JUMPI PUSH0 DUP2 PUSH0 SWAP1 SSTORE POP PUSH1 0x1 ADD PUSH1 0x89 JUMP JUMPDEST POP SWAP1 JUMP JUMPDEST PUSH2 0x2CC DUP1 PUSH2 0xAE PUSH0 CODECOPY PUSH0 RETURN INVALID PUSH1 0x80 PUSH1 0x40 MSTORE CALLVALUE DUP1 ISZERO PUSH2 0xF JUMPI PUSH0 DUP1 REVERT JUMPDEST POP PUSH1 0x4 CALLDATASIZE LT PUSH2 0x3F JUMPI PUSH0 CALLDATALOAD PUSH1 0xE0 SHR DUP1 PUSH4 0x5E3BE076 EQ PUSH2 0x43 JUMPI DUP1 PUSH4 0x71E5EE5F EQ PUSH2 0x4D JUMPI DUP1 PUSH4 0x9F87BD86 EQ PUSH2 0x7D JUMPI JUMPDEST PUSH0 DUP1 REVERT JUMPDEST PUSH2 0x4B PUSH2 0x9B JUMP JUMPDEST STOP JUMPDEST PUSH2 0x67 PUSH1 0x4 DUP1 CALLDATASIZE SUB DUP2 ADD SWAP1 PUSH2 0x62 SWAP2 SWAP1 PUSH2 0x158 JUMP JUMPDEST PUSH2 0xB9 JUMP JUMPDEST PUSH1 0x40 MLOAD PUSH2 0x74 SWAP2 SWAP1 PUSH2 0x192 JUMP JUMPDEST PUSH1 0x40 MLOAD DUP1 SWAP2 SUB SWAP1 RETURN JUMPDEST PUSH2 0x85 PUSH2 0xD1 JUMP JUMPDEST PUSH1 0x40 MLOAD PUSH2 0x92 SWAP2 SWAP1 PUSH2 0x250 JUMP JUMPDEST PUSH1 0x40 MLOAD DUP1 SWAP2 SUB SWAP1 RETURN JUMPDEST PUSH0 PUSH1 0x64 DUP2 PUSH0 PUSH1 0x3 DUP2 LT PUSH2 0xB1 JUMPI PUSH2 0xB0 PUSH2 0x269 JUMP JUMPDEST JUMPDEST ADD DUP2 SWAP1 SSTORE POP POP JUMP JUMPDEST PUSH0 DUP2 PUSH1 0x3 DUP2 LT PUSH2 0xC7 JUMPI PUSH0 DUP1 REVERT JUMPDEST ADD PUSH0 SWAP2 POP SWAP1 POP SLOAD DUP2 JUMP JUMPDEST PUSH2 0xD9 PUSH2 0xFF JUMP JUMPDEST PUSH0 PUSH1 0x40 MLOAD DUP1 PUSH1 0x60 ADD PUSH1 0x40 MSTORE DUP1 PUSH1 0x64 DUP2 MSTORE PUSH1 0x20 ADD PUSH0 DUP2 MSTORE PUSH1 0x20 ADD PUSH0 DUP2 MSTORE POP SWAP1 POP DUP1 SWAP2 POP POP SWAP1 JUMP JUMPDEST PUSH1 0x40 MLOAD DUP1 PUSH1 0x60 ADD PUSH1 0x40 MSTORE DUP1 PUSH1 0x3 SWAP1 PUSH1 0x20 DUP3 MUL DUP1 CALLDATASIZE DUP4 CALLDATACOPY DUP1 DUP3 ADD SWAP2 POP POP SWAP1 POP POP SWAP1 JUMP JUMPDEST PUSH0 DUP1 REVERT JUMPDEST PUSH0 DUP2 SWAP1 POP SWAP2 SWAP1 POP JUMP JUMPDEST PUSH2 0x137 DUP2 PUSH2 0x125 JUMP JUMPDEST DUP2 EQ PUSH2 0x141 JUMPI PUSH0 DUP1 REVERT JUMPDEST POP JUMP JUMPDEST PUSH0 DUP2 CALLDATALOAD SWAP1 POP PUSH2 0x152 DUP2 PUSH2 0x12E JUMP JUMPDEST SWAP3 SWAP2 POP POP JUMP JUMPDEST PUSH0 PUSH1 0x20 DUP3 DUP5 SUB SLT ISZERO PUSH2 0x16D JUMPI PUSH2 0x16C PUSH2 0x121 JUMP JUMPDEST JUMPDEST PUSH0 PUSH2 0x17A DUP5 DUP3 DUP6 ADD PUSH2 0x144 JUMP JUMPDEST SWAP2 POP POP SWAP3 SWAP2 POP POP JUMP JUMPDEST PUSH2 0x18C DUP2 PUSH2 0x125 JUMP JUMPDEST DUP3 MSTORE POP POP JUMP JUMPDEST PUSH0 PUSH1 0x20 DUP3 ADD SWAP1 POP PUSH2 0x1A5 PUSH0 DUP4 ADD DUP5 PUSH2 0x183 JUMP JUMPDEST SWAP3 SWAP2 POP POP JUMP JUMPDEST PUSH0 PUSH1 0x3 SWAP1 POP SWAP2 SWAP1 POP JUMP JUMPDEST PUSH0 DUP2 SWAP1 POP SWAP3 SWAP2 POP POP JUMP JUMPDEST PUSH0 DUP2 SWAP1 POP SWAP2 SWAP1 POP JUMP JUMPDEST PUSH2 0x1D1 DUP2 PUSH2 0x125 JUMP JUMPDEST DUP3 MSTORE POP POP JUMP JUMPDEST PUSH0 PUSH2 0x1E2 DUP4 DUP4 PUSH2 0x1C8 JUMP JUMPDEST PUSH1 0x20 DUP4 ADD SWAP1 POP SWAP3 SWAP2 POP POP JUMP JUMPDEST PUSH0 PUSH1 0x20 DUP3 ADD SWAP1 POP SWAP2 SWAP1 POP JUMP JUMPDEST PUSH2 0x203 DUP2 PUSH2 0x1AB JUMP JUMPDEST PUSH2 0x20D DUP2 DUP5 PUSH2 0x1B5 JUMP JUMPDEST SWAP3 POP PUSH2 0x218 DUP3 PUSH2 0x1BF JUMP JUMPDEST DUP1 PUSH0 JUMPDEST DUP4 DUP2 LT ISZERO PUSH2 0x248 JUMPI DUP2 MLOAD PUSH2 0x22F DUP8 DUP3 PUSH2 0x1D7 JUMP JUMPDEST SWAP7 POP PUSH2 0x23A DUP4 PUSH2 0x1EE JUMP JUMPDEST SWAP3 POP POP PUSH1 0x1 DUP2 ADD SWAP1 POP PUSH2 0x21B JUMP JUMPDEST POP POP POP POP POP POP JUMP JUMPDEST PUSH0 PUSH1 0x60 DUP3 ADD SWAP1 POP PUSH2 0x263 PUSH0 DUP4 ADD DUP5 PUSH2 0x1FA JUMP JUMPDEST SWAP3 SWAP2 POP POP JUMP JUMPDEST PUSH32 0x4E487B7100000000000000000000000000000000000000000000000000000000 PUSH0 MSTORE PUSH1 0x32 PUSH1 0x4 MSTORE PUSH1 0x24 PUSH0 REVERT INVALID LOG2 PUSH5 0x6970667358 0x22 SLT KECCAK256 SWAP1 0xA8 PUSH29 0xD018DB0BA5130F3F6EE7436C152E462C8B799934716096DA3534F7E9C9 PUSH5 0x736F6C6343 STOP ADDMOD BYTE STOP CALLER "
				},
				"gasEstimates": {
					"creation": {
						"codeDepositCost": "143200",
						"executionCost": "infinite",
						"totalCost": "infinite"
					},
					"external": {
						"arr(uint256)": "infinite",
						"fmemory()": "infinite",
						"fstorage()": "22267"
					}
				},
				"methodIdentifiers": {
					"arr(uint256)": "71e5ee5f",
					"fmemory()": "9f87bd86",
					"fstorage()": "5e3be076"
				}
			},
			"storageLayout": {
				"storage": [
					{
						"astId": 9,
						"contract": "solidity_programs/17.sol:demo",
						"label": "arr",
						"offset": 0,
						"slot": "0",
						"type": "t_array(t_uint256)3_storage"
					}
				],
				"types": {
					"t_array(t_uint256)3_storage": {
						"base": "t_uint256",
						"encoding": "inplace",
						"label": "uint256[3]",
						"numberOfBytes": "96"
					},
					"t_uint256": {
						"encoding": "inplace",
						"label": "uint256",
						"numberOfBytes": "32"
					}
				}
			},
			"userdoc": {
				"kind": "user",
				"methods": {},
				"version": 1
			}
		}
	}
}